{
  "contractName": "MultiNFT",
  "abi": [
    {
      "constant": true,
      "inputs": [
        {
          "name": "tokenId",
          "type": "uint256"
        }
      ],
      "name": "name",
      "outputs": [
        {
          "name": "",
          "type": "string"
        }
      ],
      "payable": false,
      "stateMutability": "view",
      "type": "function"
    },
    {
      "constant": true,
      "inputs": [
        {
          "name": "interfaceId",
          "type": "bytes4"
        }
      ],
      "name": "supportsInterface",
      "outputs": [
        {
          "name": "",
          "type": "bool"
        }
      ],
      "payable": false,
      "stateMutability": "view",
      "type": "function"
    },
    {
      "constant": true,
      "inputs": [],
      "name": "name",
      "outputs": [
        {
          "name": "",
          "type": "string"
        }
      ],
      "payable": false,
      "stateMutability": "view",
      "type": "function"
    },
    {
      "constant": true,
      "inputs": [
        {
          "name": "tokenId",
          "type": "uint256"
        }
      ],
      "name": "getApproved",
      "outputs": [
        {
          "name": "",
          "type": "address"
        }
      ],
      "payable": false,
      "stateMutability": "view",
      "type": "function"
    },
    {
      "constant": false,
      "inputs": [
        {
          "name": "to",
          "type": "address"
        },
        {
          "name": "tokenId",
          "type": "uint256"
        }
      ],
      "name": "approve",
      "outputs": [],
      "payable": false,
      "stateMutability": "nonpayable",
      "type": "function"
    },
    {
      "constant": true,
      "inputs": [
        {
          "name": "tokenSymbol",
          "type": "string"
        }
      ],
      "name": "tokenTypeOfSymbol",
      "outputs": [
        {
          "name": "",
          "type": "uint256"
        }
      ],
      "payable": false,
      "stateMutability": "view",
      "type": "function"
    },
    {
      "constant": true,
      "inputs": [],
      "name": "totalSupply",
      "outputs": [
        {
          "name": "",
          "type": "uint256"
        }
      ],
      "payable": false,
      "stateMutability": "view",
      "type": "function"
    },
    {
      "constant": false,
      "inputs": [
        {
          "name": "from",
          "type": "address"
        },
        {
          "name": "to",
          "type": "address"
        },
        {
          "name": "tokenId",
          "type": "uint256"
        }
      ],
      "name": "transferFrom",
      "outputs": [],
      "payable": false,
      "stateMutability": "nonpayable",
      "type": "function"
    },
    {
      "constant": true,
      "inputs": [
        {
          "name": "owner",
          "type": "address"
        },
        {
          "name": "index",
          "type": "uint256"
        }
      ],
      "name": "tokenOfOwnerByIndex",
      "outputs": [
        {
          "name": "",
          "type": "uint256"
        }
      ],
      "payable": false,
      "stateMutability": "view",
      "type": "function"
    },
    {
      "constant": false,
      "inputs": [],
      "name": "unpause",
      "outputs": [],
      "payable": false,
      "stateMutability": "nonpayable",
      "type": "function"
    },
    {
      "constant": false,
      "inputs": [
        {
          "name": "from",
          "type": "address"
        },
        {
          "name": "to",
          "type": "address"
        },
        {
          "name": "tokenId",
          "type": "uint256"
        }
      ],
      "name": "safeTransferFrom",
      "outputs": [],
      "payable": false,
      "stateMutability": "nonpayable",
      "type": "function"
    },
    {
      "constant": true,
      "inputs": [
        {
          "name": "account",
          "type": "address"
        }
      ],
      "name": "isPauser",
      "outputs": [
        {
          "name": "",
          "type": "bool"
        }
      ],
      "payable": false,
      "stateMutability": "view",
      "type": "function"
    },
    {
      "constant": true,
      "inputs": [
        {
          "name": "tokenId",
          "type": "uint256"
        }
      ],
      "name": "symbol",
      "outputs": [
        {
          "name": "",
          "type": "string"
        }
      ],
      "payable": false,
      "stateMutability": "view",
      "type": "function"
    },
    {
      "constant": true,
      "inputs": [
        {
          "name": "index",
          "type": "uint256"
        }
      ],
      "name": "tokenByIndex",
      "outputs": [
        {
          "name": "",
          "type": "uint256"
        }
      ],
      "payable": false,
      "stateMutability": "view",
      "type": "function"
    },
    {
      "constant": true,
      "inputs": [],
      "name": "paused",
      "outputs": [
        {
          "name": "",
          "type": "bool"
        }
      ],
      "payable": false,
      "stateMutability": "view",
      "type": "function"
    },
    {
      "constant": true,
      "inputs": [
        {
          "name": "tokenId",
          "type": "uint256"
        }
      ],
      "name": "ownerOf",
      "outputs": [
        {
          "name": "",
          "type": "address"
        }
      ],
      "payable": false,
      "stateMutability": "view",
      "type": "function"
    },
    {
      "constant": false,
      "inputs": [],
      "name": "renouncePauser",
      "outputs": [],
      "payable": false,
      "stateMutability": "nonpayable",
      "type": "function"
    },
    {
      "constant": true,
      "inputs": [
        {
          "name": "owner",
          "type": "address"
        }
      ],
      "name": "balanceOf",
      "outputs": [
        {
          "name": "",
          "type": "uint256"
        }
      ],
      "payable": false,
      "stateMutability": "view",
      "type": "function"
    },
    {
      "constant": false,
      "inputs": [
        {
          "name": "account",
          "type": "address"
        }
      ],
      "name": "addPauser",
      "outputs": [],
      "payable": false,
      "stateMutability": "nonpayable",
      "type": "function"
    },
    {
      "constant": false,
      "inputs": [],
      "name": "pause",
      "outputs": [],
      "payable": false,
      "stateMutability": "nonpayable",
      "type": "function"
    },
    {
      "constant": true,
      "inputs": [
        {
          "name": "tokenSymbol",
          "type": "string"
        }
      ],
      "name": "symbolExists",
      "outputs": [
        {
          "name": "",
          "type": "bool"
        }
      ],
      "payable": false,
      "stateMutability": "view",
      "type": "function"
    },
    {
      "constant": true,
      "inputs": [],
      "name": "symbol",
      "outputs": [
        {
          "name": "",
          "type": "string"
        }
      ],
      "payable": false,
      "stateMutability": "view",
      "type": "function"
    },
    {
      "constant": false,
      "inputs": [
        {
          "name": "to",
          "type": "address"
        },
        {
          "name": "approved",
          "type": "bool"
        }
      ],
      "name": "setApprovalForAll",
      "outputs": [],
      "payable": false,
      "stateMutability": "nonpayable",
      "type": "function"
    },
    {
      "constant": true,
      "inputs": [
        {
          "name": "tokenName",
          "type": "string"
        }
      ],
      "name": "tokenTypeOfName",
      "outputs": [
        {
          "name": "",
          "type": "uint256"
        }
      ],
      "payable": false,
      "stateMutability": "view",
      "type": "function"
    },
    {
      "constant": false,
      "inputs": [
        {
          "name": "from",
          "type": "address"
        },
        {
          "name": "to",
          "type": "address"
        },
        {
          "name": "tokenId",
          "type": "uint256"
        },
        {
          "name": "_data",
          "type": "bytes"
        }
      ],
      "name": "safeTransferFrom",
      "outputs": [],
      "payable": false,
      "stateMutability": "nonpayable",
      "type": "function"
    },
    {
      "constant": true,
      "inputs": [
        {
          "name": "tokenId",
          "type": "uint256"
        }
      ],
      "name": "tokenURI",
      "outputs": [
        {
          "name": "",
          "type": "string"
        }
      ],
      "payable": false,
      "stateMutability": "view",
      "type": "function"
    },
    {
      "constant": true,
      "inputs": [
        {
          "name": "tokenName",
          "type": "string"
        }
      ],
      "name": "nameExists",
      "outputs": [
        {
          "name": "",
          "type": "bool"
        }
      ],
      "payable": false,
      "stateMutability": "view",
      "type": "function"
    },
    {
      "constant": true,
      "inputs": [
        {
          "name": "owner",
          "type": "address"
        },
        {
          "name": "operator",
          "type": "address"
        }
      ],
      "name": "isApprovedForAll",
      "outputs": [
        {
          "name": "",
          "type": "bool"
        }
      ],
      "payable": false,
      "stateMutability": "view",
      "type": "function"
    },
    {
      "anonymous": false,
      "inputs": [
        {
          "indexed": false,
          "name": "name",
          "type": "string"
        },
        {
          "indexed": false,
          "name": "symbol",
          "type": "string"
        },
        {
          "indexed": false,
          "name": "uri",
          "type": "string"
        },
        {
          "indexed": true,
          "name": "creator",
          "type": "address"
        }
      ],
      "name": "CreateType",
      "type": "event"
    },
    {
      "anonymous": false,
      "inputs": [
        {
          "indexed": true,
          "name": "tokenId",
          "type": "uint256"
        },
        {
          "indexed": false,
          "name": "uri",
          "type": "string"
        }
      ],
      "name": "SetUri",
      "type": "event"
    },
    {
      "anonymous": false,
      "inputs": [
        {
          "indexed": false,
          "name": "name",
          "type": "string"
        },
        {
          "indexed": false,
          "name": "symbol",
          "type": "string"
        },
        {
          "indexed": false,
          "name": "uri",
          "type": "string"
        },
        {
          "indexed": false,
          "name": "owner",
          "type": "string"
        },
        {
          "indexed": true,
          "name": "operator",
          "type": "address"
        }
      ],
      "name": "WebCreateType",
      "type": "event"
    },
    {
      "anonymous": false,
      "inputs": [
        {
          "indexed": false,
          "name": "tokenName",
          "type": "string"
        },
        {
          "indexed": false,
          "name": "uri",
          "type": "string"
        },
        {
          "indexed": false,
          "name": "count",
          "type": "uint256"
        },
        {
          "indexed": false,
          "name": "owner",
          "type": "string"
        }
      ],
      "name": "WebMint",
      "type": "event"
    },
    {
      "anonymous": false,
      "inputs": [
        {
          "indexed": false,
          "name": "tokenName",
          "type": "string"
        },
        {
          "indexed": false,
          "name": "oldOwner",
          "type": "string"
        },
        {
          "indexed": true,
          "name": "newOwner",
          "type": "address"
        }
      ],
      "name": "WebClaimType",
      "type": "event"
    },
    {
      "anonymous": false,
      "inputs": [
        {
          "indexed": true,
          "name": "to",
          "type": "address"
        },
        {
          "indexed": true,
          "name": "tokenId",
          "type": "uint256"
        },
        {
          "indexed": false,
          "name": "owner",
          "type": "string"
        }
      ],
      "name": "WebTransfer",
      "type": "event"
    },
    {
      "anonymous": false,
      "inputs": [
        {
          "indexed": false,
          "name": "account",
          "type": "address"
        }
      ],
      "name": "Paused",
      "type": "event"
    },
    {
      "anonymous": false,
      "inputs": [
        {
          "indexed": false,
          "name": "account",
          "type": "address"
        }
      ],
      "name": "Unpaused",
      "type": "event"
    },
    {
      "anonymous": false,
      "inputs": [
        {
          "indexed": true,
          "name": "account",
          "type": "address"
        }
      ],
      "name": "PauserAdded",
      "type": "event"
    },
    {
      "anonymous": false,
      "inputs": [
        {
          "indexed": true,
          "name": "account",
          "type": "address"
        }
      ],
      "name": "PauserRemoved",
      "type": "event"
    },
    {
      "anonymous": false,
      "inputs": [
        {
          "indexed": true,
          "name": "from",
          "type": "address"
        },
        {
          "indexed": true,
          "name": "to",
          "type": "address"
        },
        {
          "indexed": true,
          "name": "tokenId",
          "type": "uint256"
        }
      ],
      "name": "Transfer",
      "type": "event"
    },
    {
      "anonymous": false,
      "inputs": [
        {
          "indexed": true,
          "name": "owner",
          "type": "address"
        },
        {
          "indexed": true,
          "name": "approved",
          "type": "address"
        },
        {
          "indexed": true,
          "name": "tokenId",
          "type": "uint256"
        }
      ],
      "name": "Approval",
      "type": "event"
    },
    {
      "anonymous": false,
      "inputs": [
        {
          "indexed": true,
          "name": "owner",
          "type": "address"
        },
        {
          "indexed": true,
          "name": "operator",
          "type": "address"
        },
        {
          "indexed": false,
          "name": "approved",
          "type": "bool"
        }
      ],
      "name": "ApprovalForAll",
      "type": "event"
    },
    {
      "constant": false,
      "inputs": [
        {
          "name": "name",
          "type": "string"
        },
        {
          "name": "symbol",
          "type": "string"
        },
        {
          "name": "pausers",
          "type": "address[]"
        },
        {
          "name": "webApprovers",
          "type": "address[]"
        }
      ],
      "name": "initialize",
      "outputs": [],
      "payable": false,
      "stateMutability": "nonpayable",
      "type": "function"
    },
    {
      "constant": true,
      "inputs": [
        {
          "name": "tokenType",
          "type": "uint256"
        },
        {
          "name": "owner",
          "type": "address"
        }
      ],
      "name": "getTypeBalance",
      "outputs": [
        {
          "name": "",
          "type": "uint256"
        }
      ],
      "payable": false,
      "stateMutability": "view",
      "type": "function"
    },
    {
      "constant": true,
      "inputs": [
        {
          "name": "tokenType",
          "type": "uint256"
        }
      ],
      "name": "getCreator",
      "outputs": [
        {
          "name": "",
          "type": "address"
        }
      ],
      "payable": false,
      "stateMutability": "view",
      "type": "function"
    },
    {
      "constant": true,
      "inputs": [
        {
          "name": "tokenType",
          "type": "uint256"
        }
      ],
      "name": "getMaxIndex",
      "outputs": [
        {
          "name": "",
          "type": "uint256"
        }
      ],
      "payable": false,
      "stateMutability": "view",
      "type": "function"
    },
    {
      "constant": true,
      "inputs": [],
      "name": "numTypesCreated",
      "outputs": [
        {
          "name": "",
          "type": "uint256"
        }
      ],
      "payable": false,
      "stateMutability": "view",
      "type": "function"
    },
    {
      "constant": true,
      "inputs": [
        {
          "name": "tokenId",
          "type": "uint256"
        }
      ],
      "name": "getIndex",
      "outputs": [
        {
          "name": "",
          "type": "uint256"
        }
      ],
      "payable": false,
      "stateMutability": "pure",
      "type": "function"
    },
    {
      "constant": true,
      "inputs": [
        {
          "name": "tokenId",
          "type": "uint256"
        }
      ],
      "name": "getType",
      "outputs": [
        {
          "name": "",
          "type": "uint256"
        }
      ],
      "payable": false,
      "stateMutability": "pure",
      "type": "function"
    },
    {
      "constant": false,
      "inputs": [
        {
          "name": "name",
          "type": "string"
        },
        {
          "name": "symbol",
          "type": "string"
        },
        {
          "name": "uri",
          "type": "string"
        }
      ],
      "name": "createType",
      "outputs": [
        {
          "name": "",
          "type": "uint256"
        }
      ],
      "payable": false,
      "stateMutability": "nonpayable",
      "type": "function"
    },
    {
      "constant": false,
      "inputs": [
        {
          "name": "tokenName",
          "type": "string"
        },
        {
          "name": "to",
          "type": "address[]"
        },
        {
          "name": "uri",
          "type": "string"
        }
      ],
      "name": "mint",
      "outputs": [],
      "payable": false,
      "stateMutability": "nonpayable",
      "type": "function"
    },
    {
      "constant": false,
      "inputs": [
        {
          "name": "tokenId",
          "type": "uint256"
        },
        {
          "name": "uri",
          "type": "string"
        }
      ],
      "name": "setTokenURI",
      "outputs": [],
      "payable": false,
      "stateMutability": "nonpayable",
      "type": "function"
    },
    {
      "constant": false,
      "inputs": [
        {
          "name": "approver",
          "type": "address"
        }
      ],
      "name": "addWebApprover",
      "outputs": [],
      "payable": false,
      "stateMutability": "nonpayable",
      "type": "function"
    },
    {
      "constant": false,
      "inputs": [
        {
          "name": "approver",
          "type": "address"
        }
      ],
      "name": "removeWebApprover",
      "outputs": [],
      "payable": false,
      "stateMutability": "nonpayable",
      "type": "function"
    },
    {
      "constant": false,
      "inputs": [
        {
          "name": "name",
          "type": "string"
        },
        {
          "name": "symbol",
          "type": "string"
        },
        {
          "name": "uri",
          "type": "string"
        },
        {
          "name": "owner",
          "type": "string"
        }
      ],
      "name": "webCreateType",
      "outputs": [
        {
          "name": "",
          "type": "uint256"
        }
      ],
      "payable": false,
      "stateMutability": "nonpayable",
      "type": "function"
    },
    {
      "constant": false,
      "inputs": [
        {
          "name": "tokenName",
          "type": "string"
        },
        {
          "name": "oldOwner",
          "type": "string"
        },
        {
          "name": "newOwner",
          "type": "address"
        }
      ],
      "name": "webClaimType",
      "outputs": [
        {
          "name": "",
          "type": "bool"
        }
      ],
      "payable": false,
      "stateMutability": "nonpayable",
      "type": "function"
    },
    {
      "constant": false,
      "inputs": [
        {
          "name": "tokenName",
          "type": "string"
        },
        {
          "name": "uri",
          "type": "string"
        },
        {
          "name": "count",
          "type": "uint256"
        },
        {
          "name": "owner",
          "type": "string"
        }
      ],
      "name": "webMint",
      "outputs": [
        {
          "name": "",
          "type": "uint256[]"
        }
      ],
      "payable": false,
      "stateMutability": "nonpayable",
      "type": "function"
    },
    {
      "constant": false,
      "inputs": [
        {
          "name": "to",
          "type": "address"
        },
        {
          "name": "tokenId",
          "type": "uint256"
        },
        {
          "name": "owner",
          "type": "string"
        }
      ],
      "name": "webTransfer",
      "outputs": [],
      "payable": false,
      "stateMutability": "nonpayable",
      "type": "function"
    },
    {
      "constant": false,
      "inputs": [
        {
          "name": "tokenId",
          "type": "uint256"
        },
        {
          "name": "uri",
          "type": "string"
        },
        {
          "name": "owner",
          "type": "string"
        }
      ],
      "name": "webSetTokenURI",
      "outputs": [],
      "payable": false,
      "stateMutability": "nonpayable",
      "type": "function"
    },
    {
      "constant": false,
      "inputs": [
        {
          "name": "tokenId",
          "type": "uint256"
        }
      ],
      "name": "burn",
      "outputs": [],
      "payable": false,
      "stateMutability": "nonpayable",
      "type": "function"
    }
  ],
  "bytecode": "0x608060405234801561001057600080fd5b50615a3280620000216000396000f3fe608060405234801561001057600080fd5b5060043610610306576000357c01000000000000000000000000000000000000000000000000000000009004806367c19930116101a9578063a64bec9e1161010b578063d48e638a116100b4578063dcbfa28c1161008e578063dcbfa28c1461124c578063e985e9c514611360578063fefe8b401461138e57610306565b8063d48e638a14610fd4578063d94cc0e014610ff1578063dac28db21461122657610306565b8063c87b56dd116100e5578063c87b56dd14610ee5578063cc637afe14610f02578063cf2bd35f14610fa857610306565b8063a64bec9e14610d5c578063b78cb7ee14610d79578063b88d4fde14610e1f57610306565b80638456cb591161016d57806390349d131161014757806390349d1314610bbe57806395d89b4114610d26578063a22cb46514610d2e57610306565b80638456cb5914610af35780638c659fb814610afb5780638e7cb6e114610ba157610306565b806367c19930146109f45780636ef8d66d14610a1a57806370a0823114610a225780637fc1f4f414610a4857806382dc1ec414610acd57610306565b80632f745c591161026d5780634a8632ca116102165780635c975abb116101f05780635c975abb146109065780635ccfe18f1461090e5780636352211e146109d757610306565b80634a8632ca146107665780634e41a1fb146108cc5780634f6ccce7146108e957610306565b806342842e0e1161024757806342842e0e146106ed57806342966c681461072357806346fbf68e1461074057610306565b80632f745c591461069c5780633f4ba83a146106c85780634036ab78146106d057610306565b80630be96e30116102cf57806318802595116102a9578063188025951461059357806323b872dd1461059b5780632982c143146105d157610306565b80630be96e301461045c578063162094c41461051457806318160ddd1461058b57610306565b8062ad800c1461030b57806301ffc9a71461039d57806306fdde03146103ed578063081812fc146103f5578063095ea7b31461042e575b600080fd5b6103286004803603602081101561032157600080fd5b50356114a2565b6040805160208082528351818301528351919283929083019185019080838360005b8381101561036257818101518382015260200161034a565b50505050905090810190601f16801561038f5780820380516001836020036101000a031916815260200191505b509250505060405180910390f35b6103d9600480360360208110156103b357600080fd5b50357bffffffffffffffffffffffffffffffffffffffffffffffffffffffff191661155b565b604080519115158252519081900360200190f35b61032861158f565b6104126004803603602081101561040b57600080fd5b5035611626565b60408051600160a060020a039092168252519081900360200190f35b61045a6004803603604081101561044457600080fd5b50600160a060020a0381351690602001356116a1565b005b6105026004803603602081101561047257600080fd5b81019060208101813564010000000081111561048d57600080fd5b82018360208201111561049f57600080fd5b803590602001918460018302840111640100000000831117156104c157600080fd5b91908080601f0160208091040260200160405190810160405280939291908181526020018383808284376000920191909152509295506116f9945050505050565b60408051918252519081900360200190f35b61045a6004803603604081101561052a57600080fd5b8135919081019060408101602082013564010000000081111561054c57600080fd5b82018360208201111561055e57600080fd5b8035906020019184600183028401116401000000008311171561058057600080fd5b50909250905061176a565b610502611917565b61050261191d565b61045a600480360360608110156105b157600080fd5b50600160a060020a03813581169160208101359091169060400135611924565b6103d9600480360360608110156105e757600080fd5b81019060208101813564010000000081111561060257600080fd5b82018360208201111561061457600080fd5b8035906020019184600183028401116401000000008311171561063657600080fd5b91939092909160208101903564010000000081111561065457600080fd5b82018360208201111561066657600080fd5b8035906020019184600183028401116401000000008311171561068857600080fd5b919350915035600160a060020a031661197e565b610502600480360360408110156106b257600080fd5b50600160a060020a038135169060200135611df6565b61045a611e8f565b610502600480360360208110156106e657600080fd5b5035611f87565b61045a6004803603606081101561070357600080fd5b50600160a060020a03813581169160208101359091169060400135611f9d565b61045a6004803603602081101561073957600080fd5b5035611fb8565b6103d96004803603602081101561075657600080fd5b5035600160a060020a0316612064565b6105026004803603608081101561077c57600080fd5b81019060208101813564010000000081111561079757600080fd5b8201836020820111156107a957600080fd5b803590602001918460018302840111640100000000831117156107cb57600080fd5b9193909290916020810190356401000000008111156107e957600080fd5b8201836020820111156107fb57600080fd5b8035906020019184600183028401116401000000008311171561081d57600080fd5b91939092909160208101903564010000000081111561083b57600080fd5b82018360208201111561084d57600080fd5b8035906020019184600183028401116401000000008311171561086f57600080fd5b91939092909160208101903564010000000081111561088d57600080fd5b82018360208201111561089f57600080fd5b803590602001918460018302840111640100000000831117156108c157600080fd5b509092509050612096565b610328600480360360208110156108e257600080fd5b5035612589565b610502600480360360208110156108ff57600080fd5b5035612609565b6103d9612672565b61045a6004803603606081101561092457600080fd5b8135919081019060408101602082013564010000000081111561094657600080fd5b82018360208201111561095857600080fd5b8035906020019184600183028401116401000000008311171561097a57600080fd5b91939092909160208101903564010000000081111561099857600080fd5b8201836020820111156109aa57600080fd5b803590602001918460018302840111640100000000831117156109cc57600080fd5b50909250905061267c565b610412600480360360208110156109ed57600080fd5b5035612963565b61045a60048036036020811015610a0a57600080fd5b5035600160a060020a0316612985565b61045a612a48565b61050260048036036020811015610a3857600080fd5b5035600160a060020a0316612a53565b61045a60048036036060811015610a5e57600080fd5b600160a060020a0382351691602081013591810190606081016040820135640100000000811115610a8e57600080fd5b820183602082011115610aa057600080fd5b80359060200191846001830284011164010000000083111715610ac257600080fd5b509092509050612a84565b61045a60048036036020811015610ae357600080fd5b5035600160a060020a0316612d68565b61045a612dd1565b6103d960048036036020811015610b1157600080fd5b810190602081018135640100000000811115610b2c57600080fd5b820183602082011115610b3e57600080fd5b80359060200191846001830284011164010000000083111715610b6057600080fd5b91908080601f016020809104026020016040519081016040528093929190818152602001838380828437600092019190915250929550612ebb945050505050565b61050260048036036020811015610bb757600080fd5b5035612f31565b610cd660048036036080811015610bd457600080fd5b810190602081018135640100000000811115610bef57600080fd5b820183602082011115610c0157600080fd5b80359060200191846001830284011164010000000083111715610c2357600080fd5b919390929091602081019035640100000000811115610c4157600080fd5b820183602082011115610c5357600080fd5b80359060200191846001830284011164010000000083111715610c7557600080fd5b91939092823592604081019060200135640100000000811115610c9757600080fd5b820183602082011115610ca957600080fd5b80359060200191846001830284011164010000000083111715610ccb57600080fd5b509092509050612f46565b60408051602080825283518183015283519192839290830191858101910280838360005b83811015610d12578181015183820152602001610cfa565b505050509050019250505060405180910390f35b610328613475565b61045a60048036036040811015610d4457600080fd5b50600160a060020a03813516906020013515156134d6565b61050260048036036020811015610d7257600080fd5b503561352a565b61050260048036036020811015610d8f57600080fd5b810190602081018135640100000000811115610daa57600080fd5b820183602082011115610dbc57600080fd5b80359060200191846001830284011164010000000083111715610dde57600080fd5b91908080601f01602080910402602001604051908101604052809392919081815260200183838082843760009201919091525092955061353d945050505050565b61045a60048036036080811015610e3557600080fd5b600160a060020a03823581169260208101359091169160408201359190810190608081016060820135640100000000811115610e7057600080fd5b820183602082011115610e8257600080fd5b80359060200191846001830284011164010000000083111715610ea457600080fd5b91908080601f01602080910402602001604051908101604052809392919081815260200183838082843760009201919091525092955061354b945050505050565b61032860048036036020811015610efb57600080fd5b50356135a6565b6103d960048036036020811015610f1857600080fd5b810190602081018135640100000000811115610f3357600080fd5b820183602082011115610f4557600080fd5b80359060200191846001830284011164010000000083111715610f6757600080fd5b91908080601f0160208091040260200160405190810160405280939291908181526020018383808284376000920191909152509295506136a4945050505050565b61050260048036036040811015610fbe57600080fd5b5080359060200135600160a060020a03166136b3565b61041260048036036020811015610fea57600080fd5b50356136dc565b61045a6004803603608081101561100757600080fd5b81019060208101813564010000000081111561102257600080fd5b82018360208201111561103457600080fd5b8035906020019184600183028401116401000000008311171561105657600080fd5b91908080601f01602080910402602001604051908101604052809392919081815260200183838082843760009201919091525092959493602081019350359150506401000000008111156110a957600080fd5b8201836020820111156110bb57600080fd5b803590602001918460018302840111640100000000831117156110dd57600080fd5b91908080601f016020809104026020016040519081016040528093929190818152602001838380828437600092019190915250929594936020810193503591505064010000000081111561113057600080fd5b82018360208201111561114257600080fd5b8035906020019184602083028401116401000000008311171561116457600080fd5b91908080602002602001604051908101604052809392919081815260200183836020028082843760009201919091525092959493602081019350359150506401000000008111156111b457600080fd5b8201836020820111156111c657600080fd5b803590602001918460208302840111640100000000831117156111e857600080fd5b9190808060200260200160405190810160405280939291908181526020018383602002808284376000920191909152509295506136f8945050505050565b61045a6004803603602081101561123c57600080fd5b5035600160a060020a0316613852565b6105026004803603606081101561126257600080fd5b81019060208101813564010000000081111561127d57600080fd5b82018360208201111561128f57600080fd5b803590602001918460018302840111640100000000831117156112b157600080fd5b9193909290916020810190356401000000008111156112cf57600080fd5b8201836020820111156112e157600080fd5b8035906020019184600183028401116401000000008311171561130357600080fd5b91939092909160208101903564010000000081111561132157600080fd5b82018360208201111561133357600080fd5b8035906020019184600183028401116401000000008311171561135557600080fd5b509092509050613918565b6103d96004803603604081101561137657600080fd5b50600160a060020a0381358116916020013516613d11565b61045a600480360360608110156113a457600080fd5b8101906020810181356401000000008111156113bf57600080fd5b8201836020820111156113d157600080fd5b803590602001918460018302840111640100000000831117156113f357600080fd5b91939092909160208101903564010000000081111561141157600080fd5b82018360208201111561142357600080fd5b8035906020019184602083028401116401000000008311171561144557600080fd5b91939092909160208101903564010000000081111561146357600080fd5b82018360208201111561147557600080fd5b8035906020019184600183028401116401000000008311171561149757600080fd5b509092509050613d3f565b6fffffffffffffffffffffffffffffffff1981166000818152610107602090815260409182902080548351601f60026101006001851615026000190190931692909204918201849004840281018401909452808452606094939283018282801561154d5780601f106115225761010080835404028352916020019161154d565b820191906000526020600020905b81548152906001019060200180831161153057829003601f168201915b50505050509150505b919050565b7bffffffffffffffffffffffffffffffffffffffffffffffffffffffff191660009081526033602052604090205460ff1690565b60d28054604080516020601f600260001961010060018816150201909516949094049384018190048102820181019092528281526060939092909183018282801561161b5780601f106115f05761010080835404028352916020019161161b565b820191906000526020600020905b8154815290600101906020018083116115fe57829003601f168201915b505050505090505b90565b600061163182613df6565b611685576040805160e560020a62461bcd02815260206004820152601460248201527f546f6b656e20646f6573206e6f74206578697374000000000000000000000000604482015290519081900360640190fd5b50600090815260676020526040902054600160a060020a031690565b6101705460ff16156116eb576040805160e560020a62461bcd02815260206004820152600f6024820152600080516020615865833981519152604482015290519081900360640190fd5b6116f58282613e13565b5050565b600061010a61170783613f4d565b6040518082805190602001908083835b602083106117365780518252601f199092019160209182019101611717565b51815160209384036101000a6000190180199092169116179052920194855250604051938490030190922054949350505050565b6101705460ff16156117b4576040805160e560020a62461bcd02815260206004820152600f6024820152600080516020615865833981519152604482015290519081900360640190fd5b80611809576040805160e560020a62461bcd02815260206004820152601360248201527f5552492063616e6e6f7420626520656d70747900000000000000000000000000604482015290519081900360640190fd5b3361181384612963565b600160a060020a031614611871576040805160e560020a62461bcd02815260206004820152601660248201527f4f6e6c79206f776e65722063616e207365742075726900000000000000000000604482015290519081900360640190fd5b6118b18383838080601f016020809104026020016040519081016040528093929190818152602001838380828437600092019190915250613fcc92505050565b827fcb8a581c366c006d079f78b3f29b10e2bf252c6a9df7fb60286aa83c09bbd0b1838360405180806020018281038252848482818152602001925080828437600083820152604051601f909101601f19169092018290039550909350505050a2505050565b609e5490565b6101d55490565b6101705460ff161561196e576040805160e560020a62461bcd02815260206004820152600f6024820152600080516020615865833981519152604482015290519081900360640190fd5b611979838383613feb565b505050565b6101705460009060ff16156119cb576040805160e560020a62461bcd02815260206004820152600f6024820152600080516020615865833981519152604482015290519081900360640190fd5b3360009081526101dc602052604090205460ff161515600114611a225760405160e560020a62461bcd02815260040180806020018281038252602d8152602001806159b6602d913960400191505060405180910390fd5b600160a060020a038216611a80576040805160e560020a62461bcd02815260206004820152601760248201527f4e6577206f776e65722063616e6e6f7420626520307830000000000000000000604482015290519081900360640190fd5b82611ad5576040805160e560020a62461bcd02815260206004820152601560248201527f4f776e65722063616e6e6f7420626520656d7074790000000000000000000000604482015290519081900360640190fd5b84611b2a576040805160e560020a62461bcd02815260206004820152601a60248201527f546f6b656e206e616d652063616e6e6f7420626520656d707479000000000000604482015290519081900360640190fd5b6000611b6b87878080601f01602080910402602001604051908101604052809392919081815260200183838082843760009201919091525061353d92505050565b9050611c4b85858080601f01602080910402602001604051908101604052809392919081815260200183838082843760009201829052508681526101da60209081526040918290208054835160026000196101006001851615020190921691909104601f810184900484028201840190945283815295509350909150830182828015611c385780601f10611c0d57610100808354040283529160200191611c38565b820191906000526020600020905b815481529060010190602001808311611c1b57829003601f168201915b505050505061403e90919063ffffffff16565b611c9f576040805160e560020a62461bcd02815260206004820152601960248201527f4f6e6c79206f776e65722063616e20636c61696d207479706500000000000000604482015290519081900360640190fd5b611ca9838261410a565b60008181526101d760209081526040808320805473ffffffffffffffffffffffffffffffffffffffff1916600160a060020a0388169081179091556101d68352818420908452909152902054611d00906001614127565b60008281526101d660209081526040808320600160a060020a03881684528252808320939093558382526101db9052908120611d3b91615638565b60008181526101da60205260408120611d5391615638565b82600160a060020a03167f04a795ecf82050b3624bb5d09cd476d1b99feace91d7365e74c84d918f93a696888888886040518080602001806020018381038352878782818152602001925080828437600083820152601f01601f191690910184810383528581526020019050858580828437600083820152604051601f909101601f19169092018290039850909650505050505050a25060019695505050505050565b6000611e0183612a53565b8210611e57576040805160e560020a62461bcd02815260206004820152601f60248201527f496e646578206d757374206265206c657373207468616e2062616c616e636500604482015290519081900360640190fd5b600160a060020a0383166000908152609c60205260409020805483908110611e7b57fe5b906000526020600020015490505b92915050565b611e9833612064565b611eec576040805160e560020a62461bcd02815260206004820152601660248201527f53656e646572206973206e6f7420612070617573657200000000000000000000604482015290519081900360640190fd5b6101705460ff16611f47576040805160e560020a62461bcd02815260206004820152601360248201527f436f6e7472616374206e6f742070617573656400000000000000000000000000604482015290519081900360640190fd5b610170805460ff191690556040805133815290517f5db9ee0a495bf2e6ff9c91a7834c1ba4fdd244a5e8aa4e537bd38aeae4b073aa9181900360200190a1565b6fffffffffffffffffffffffffffffffff191690565b6119798383836040518060200160405280600081525061354b565b6101705460ff1615612002576040805160e560020a62461bcd02815260206004820152600f6024820152600080516020615865833981519152604482015290519081900360640190fd5b600061200d82611f87565b90506120193383614140565b60008181526101d66020908152604080832033845290915290205461204590600163ffffffff61418816565b60009182526101d6602090815260408084203385529091529091205550565b600160a060020a038116600090815261013d602052604081205460ff161561208e57506001611556565b506000919050565b6101705460009060ff16156120e3576040805160e560020a62461bcd02815260206004820152600f6024820152600080516020615865833981519152604482015290519081900360640190fd5b3360009081526101dc602052604090205460ff16151560011461213a5760405160e560020a62461bcd02815260040180806020018281038252602d8152602001806159b6602d913960400191505060405180910390fd5b6101d5546fffffffffffffffffffffffffffffffff191161218f5760405160e560020a62461bcd0281526004018080602001828103825260438152602001806157fe6043913960600191505060405180910390fd5b6121ce89898080601f0160208091040260200160405190810160405280939291908181526020018383808284376000920191909152506136a492505050565b15612223576040805160e560020a62461bcd02815260206004820152601360248201527f4e616d6520616c72656164792065786973747300000000000000000000000000604482015290519081900360640190fd5b61226287878080601f016020809104026020016040519081016040528093929190818152602001838380828437600092019190915250612ebb92505050565b156122b7576040805160e560020a62461bcd02815260206004820152601560248201527f53796d626f6c20616c7265616479206578697374730000000000000000000000604482015290519081900360640190fd5b8161230c576040805160e560020a62461bcd02815260206004820152601560248201527f4f776e65722063616e6e6f7420626520656d7074790000000000000000000000604482015290519081900360640190fd5b6101d55461232190600163ffffffff61412716565b6101d58190557001000000000000000000000000000000000261234381613df6565b15612398576040805160e560020a62461bcd02815260206004820152601960248201527f546f6b656e207479706520616c72656164792065786973747300000000000000604482015290519081900360640190fd5b60008181526101da602052604090206123b290858561567c565b506123f3818b8b8080601f01602080910402602001604051908101604052809392919081815260200183838082843760009201919091525061419d92505050565b6124338189898080601f01602080910402602001604051908101604052809392919081815260200183838082843760009201919091525061429d92505050565b6124738187878080601f016020809104026020016040519081016040528093929190818152602001838380828437600092019190915250613fcc92505050565b60008181526101db6020526040902061248d90858561567c565b5033600160a060020a03167ffd8a665c0e3a076ae2c742ebd72055d56cfd05434ad3377354039a829c2fee178b8b8b8b8b8b8b8b604051808060200180602001806020018060200185810385528d8d82818152602001925080828437600083820152601f01601f191690910186810385528b815260200190508b8b80828437600083820152601f01601f191690910186810384528981526020019050898980828437600083820152601f01601f191690910186810383528781526020019050878780828437600083820152604051601f909101601f19169092018290039e50909c50505050505050505050505050a29998505050505050505050565b6fffffffffffffffffffffffffffffffff1981166000818152610108602090815260409182902080548351601f60026101006001851615026000190190931692909204918201849004840281018401909452808452606094939283018282801561154d5780601f106115225761010080835404028352916020019161154d565b6000612613611917565b82106126535760405160e560020a62461bcd0281526004018080602001828103825260248152602001806159e36024913960400191505060405180910390fd5b609e828154811061266057fe5b90600052602060002001549050919050565b6101705460ff1690565b6101705460ff16156126c6576040805160e560020a62461bcd02815260206004820152600f6024820152600080516020615865833981519152604482015290519081900360640190fd5b3360009081526101dc602052604090205460ff16151560011461271d5760405160e560020a62461bcd02815260040180806020018281038252602d8152602001806159b6602d913960400191505060405180910390fd5b82612772576040805160e560020a62461bcd02815260206004820152601360248201527f5552492063616e6e6f7420626520656d70747900000000000000000000000000604482015290519081900360640190fd5b806127c7576040805160e560020a62461bcd02815260206004820152601560248201527f4f776e65722063616e6e6f7420626520656d7074790000000000000000000000604482015290519081900360640190fd5b61286782828080601f01602080910402602001604051908101604052809392919081815260200183838082843760009201829052508a81526101db60209081526040918290208054835160026000196101006001851615020190921691909104601f810184900484028201840190945283815295509350909150830182828015611c385780601f10611c0d57610100808354040283529160200191611c38565b6128bb576040805160e560020a62461bcd02815260206004820152601660248201527f4f6e6c79206f776e65722063616e207365742075726900000000000000000000604482015290519081900360640190fd5b6128fb8585858080601f016020809104026020016040519081016040528093929190818152602001838380828437600092019190915250613fcc92505050565b847fcb8a581c366c006d079f78b3f29b10e2bf252c6a9df7fb60286aa83c09bbd0b1858560405180806020018281038252848482818152602001925080828437600083820152604051601f909101601f19169092018290039550909350505050a25050505050565b600081815260666020526040812054600160a060020a031680611e8957600080fd5b6101705460ff16156129cf576040805160e560020a62461bcd02815260206004820152600f6024820152600080516020615865833981519152604482015290519081900360640190fd5b3360009081526101dc602052604090205460ff161515600114612a265760405160e560020a62461bcd02815260040180806020018281038252602d8152602001806159b6602d913960400191505060405180910390fd5b600160a060020a031660009081526101dc60205260409020805460ff19169055565b612a5133614339565b565b6000600160a060020a038216612a6857600080fd5b50600160a060020a031660009081526068602052604090205490565b6101705460ff1615612ace576040805160e560020a62461bcd02815260206004820152600f6024820152600080516020615865833981519152604482015290519081900360640190fd5b3360009081526101dc602052604090205460ff161515600114612b255760405160e560020a62461bcd02815260040180806020018281038252602d8152602001806159b6602d913960400191505060405180910390fd5b612bc582828080601f01602080910402602001604051908101604052809392919081815260200183838082843760009201829052508881526101db60209081526040918290208054835160026000196101006001851615020190921691909104601f810184900484028201840190945283815295509350909150830182828015611c385780601f10611c0d57610100808354040283529160200191611c38565b612c19576040805160e560020a62461bcd02815260206004820152601760248201527f4f6e6c79206f776e65722063616e207472616e73666572000000000000000000604482015290519081900360640190fd5b80612c6e576040805160e560020a62461bcd02815260206004820152601560248201527f4f776e65722063616e6e6f7420626520656d7074790000000000000000000000604482015290519081900360640190fd5b612c78848461410a565b6000612c8384611f87565b60008181526101d660209081526040808320600160a060020a038a168452909152902054909150612cbb90600163ffffffff61412716565b60008281526101d660209081526040808320600160a060020a038a1684528252808320939093558682526101db9052908120612cf691615638565b8385600160a060020a03167f895df4643fb4e83373a7aaaf6e7a5a67ff688c384940845308cd4f871c3cd8a7858560405180806020018281038252848482818152602001925080828437600083820152604051601f909101601f19169092018290039550909350505050a35050505050565b612d7133612064565b612dc5576040805160e560020a62461bcd02815260206004820152601660248201527f53656e646572206973206e6f7420612070617573657200000000000000000000604482015290519081900360640190fd5b612dce81614383565b50565b612dda33612064565b612e2e576040805160e560020a62461bcd02815260206004820152601660248201527f53656e646572206973206e6f7420612070617573657200000000000000000000604482015290519081900360640190fd5b6101705460ff1615612e78576040805160e560020a62461bcd02815260206004820152600f6024820152600080516020615865833981519152604482015290519081900360640190fd5b610170805460ff191660011790556040805133815290517f62e78cea01bee320cd4e420270b5ea74000d11b0c9f74754ebdbfc544b05a2589181900360200190a1565b60008061010a612eca84613f4d565b6040518082805190602001908083835b60208310612ef95780518252601f199092019160209182019101612eda565b51815160209384036101000a600019018019909216911617905292019485525060405193849003019092205492909211949350505050565b6fffffffffffffffffffffffffffffffff1690565b6101705460609060ff1615612f93576040805160e560020a62461bcd02815260206004820152600f6024820152600080516020615865833981519152604482015290519081900360640190fd5b3360009081526101dc602052604090205460ff161515600114612fea5760405160e560020a62461bcd02815260040180806020018281038252602d8152602001806159b6602d913960400191505060405180910390fd5b6015841061302c5760405160e560020a62461bcd0281526004018080602001828103825260298152602001806158cf6029913960400191505060405180910390fd5b81613081576040805160e560020a62461bcd02815260206004820152601560248201527f4f776e65722063616e6e6f7420626520656d7074790000000000000000000000604482015290519081900360640190fd5b866130d6576040805160e560020a62461bcd02815260206004820152601a60248201527f546f6b656e206e616d652063616e6e6f7420626520656d707479000000000000604482015290519081900360640190fd5b600061311789898080601f01602080910402602001604051908101604052809392919081815260200183838082843760009201919091525061353d92505050565b90506131b984848080601f01602080910402602001604051908101604052809392919081815260200183838082843760009201829052508681526101da60209081526040918290208054835160026000196101006001851615020190921691909104601f810184900484028201840190945283815295509350909150830182828015611c385780601f10611c0d57610100808354040283529160200191611c38565b61320d576040805160e560020a62461bcd02815260206004820152601a60248201527f4f6e6c7920747970652063726561746f722063616e206d696e74000000000000604482015290519081900360640190fd5b60008181526101d860205260409020546fffffffffffffffffffffffffffffffff9061323f908763ffffffff61412716565b1061327e5760405160e560020a62461bcd02815260040180806020018281038252604a815260200180615885604a913960600191505060405180910390fd5b60008181526101d8602052604081205461329f90600163ffffffff61412716565b90506060866040519080825280602002602001820160405280156132cd578160200160208202803883390190505b50905060005b8781101561336d5760006132ed848363ffffffff61412716565b85179050613331818c8c8080601f016020809104026020016040519081016040528093929190818152602001838380828437600092019190915250613fcc92505050565b60008181526101db6020526040902061334b90898961567c565b508083838151811061335957fe5b6020908102919091010152506001016132d3565b5060008381526101d8602052604090205461338f90889063ffffffff61412716565b6101d86000858152602001908152602001600020819055507faaf00f4e524a41980d217351aafb6141eb494bcfebb13c7da881aa93323ced368b8b8b8b8b8b8b6040518080602001806020018681526020018060200184810384528b8b82818152602001925080828437600083820152601f01601f191690910185810384528981526020019050898980828437600083820152601f01601f191690910185810383528681526020019050868680828437600083820152604051601f909101601f19169092018290039c50909a5050505050505050505050a19a9950505050505050505050565b60d38054604080516020601f600260001961010060018816150201909516949094049384018190048102820181019092528281526060939092909183018282801561161b5780601f106115f05761010080835404028352916020019161161b565b6101705460ff1615613520576040805160e560020a62461bcd02815260206004820152600f6024820152600080516020615865833981519152604482015290519081900360640190fd5b6116f582826143d0565b60009081526101d8602052604090205490565b600061010961170783613f4d565b613556848484611924565b6135628484848461449f565b6135a05760405160e560020a62461bcd0281526004018080602001828103825260248152602001806158416024913960400191505060405180910390fd5b50505050565b60606135b182613df6565b613605576040805160e560020a62461bcd02815260206004820152601460248201527f546f6b656e20646f6573206e6f74206578697374000000000000000000000000604482015290519081900360640190fd5b600082815260d4602090815260409182902080548351601f6002600019610100600186161502019093169290920491820184900484028101840190945280845290918301828280156136985780601f1061366d57610100808354040283529160200191613698565b820191906000526020600020905b81548152906001019060200180831161367b57829003601f168201915b50505050509050919050565b600080610109612eca84613f4d565b60009182526101d660209081526040808420600160a060020a0393909316845291905290205490565b60009081526101d76020526040902054600160a060020a031690565b600054610100900460ff1680613711575061371161461a565b8061371f575060005460ff16155b61375d5760405160e560020a62461bcd02815260040180806020018281038252602e8152602001806158f8602e913960400191505060405180910390fd5b60008054600161010061ff00198316811760ff1916919091179092550460ff16613785614620565b61378d6146f0565b61379785856147af565b6137a0306148b2565b6137a930614339565b60005b83518110156137d9576137d18482815181106137c457fe5b6020026020010151614383565b6001016137ac565b5060005b82518110156138335760016101dc60008584815181106137f957fe5b602090810291909101810151600160a060020a03168252810191909152604001600020805460ff19169115159190911790556001016137dd565b50600080549115156101000261ff001990921691909117905550505050565b6101705460ff161561389c576040805160e560020a62461bcd02815260206004820152600f6024820152600080516020615865833981519152604482015290519081900360640190fd5b3360009081526101dc602052604090205460ff1615156001146138f35760405160e560020a62461bcd02815260040180806020018281038252602d8152602001806159b6602d913960400191505060405180910390fd5b600160a060020a031660009081526101dc60205260409020805460ff19166001179055565b6101705460009060ff1615613965576040805160e560020a62461bcd02815260206004820152600f6024820152600080516020615865833981519152604482015290519081900360640190fd5b6101d5546fffffffffffffffffffffffffffffffff19116139ba5760405160e560020a62461bcd0281526004018080602001828103825260438152602001806157fe6043913960600191505060405180910390fd5b6139f987878080601f0160208091040260200160405190810160405280939291908181526020018383808284376000920191909152506136a492505050565b15613a4e576040805160e560020a62461bcd02815260206004820152601360248201527f4e616d6520616c72656164792065786973747300000000000000000000000000604482015290519081900360640190fd5b613a8d85858080601f016020809104026020016040519081016040528093929190818152602001838380828437600092019190915250612ebb92505050565b15613ae2576040805160e560020a62461bcd02815260206004820152601560248201527f53796d626f6c20616c7265616479206578697374730000000000000000000000604482015290519081900360640190fd5b6101d554613af790600163ffffffff61412716565b6101d58190557001000000000000000000000000000000000260008181526101d76020908152604091829020805473ffffffffffffffffffffffffffffffffffffffff1916331790558151601f8a01829004820281018201909252888252613b7b9183918b908b908190840183828082843760009201919091525061419d92505050565b613bbb8187878080601f01602080910402602001604051908101604052809392919081815260200183838082843760009201919091525061429d92505050565b613bfc338286868080601f01602080910402602001604051908101604052809392919081815260200183838082843760009201919091525061496c92505050565b5060008181526101d660209081526040808320338452909152902054613c2990600163ffffffff61412716565b60008281526101d6602090815260408083203380855290835292819020939093558251606080825281018b905291927fb57a4f7285e85799aa76ecb5251dc58d23dcbbcc4b620f7645c526b93c8160bb928c928c928c928c928c928c92918291908201908201608083018a8a80828437600083820152601f01601f191690910185810384528881526020019050888880828437600083820152601f01601f191690910185810383528681526020019050868680828437600083820152604051601f909101601f19169092018290039b50909950505050505050505050a2979650505050505050565b600160a060020a03918216600090815260696020908152604080832093909416825291909152205460ff1690565b613dee613d8187878080601f01602080910402602001604051908101604052809392919081815260200183838082843760009201919091525061353d92505050565b85858080602002602001604051908101604052809392919081815260200183836020028082843760009201919091525050604080516020601f8901819004810282018101909252878152925087915086908190840183828082843760009201919091525061498c92505050565b505050505050565b600090815260666020526040902054600160a060020a0316151590565b6000613e1e82612963565b905080600160a060020a031683600160a060020a03161415613e8a576040805160e560020a62461bcd02815260206004820152601460248201527f43616e6e6f7420617070726f7665206f776e6572000000000000000000000000604482015290519081900360640190fd5b33600160a060020a0382161480613ea65750613ea68133613d11565b613ee45760405160e560020a62461bcd02815260040180806020018281038252602c815260200180615926602c913960400191505060405180910390fd5b600082815260676020526040808220805473ffffffffffffffffffffffffffffffffffffffff1916600160a060020a0387811691821790925591518593918516917f8c5be1e5ebec7d5bd14f71427d1e84f3dd0314c0f7b2291e5b200ac8c7c3b92591a4505050565b60608160005b8151811015613fc557613f82828281518110613f6b57fe5b602001015160f860020a900460f860020a02614bb4565b828281518110613f8e57fe5b60200101907effffffffffffffffffffffffffffffffffffffffffffffffffffffffffffff1916908160001a905350600101613f53565b5092915050565b600082815260d4602090815260409091208251611979928401906156f6565b613ff53382614c6b565b6140335760405160e560020a62461bcd0281526004018080602001828103825260328152602001806157cc6032913960400191505060405180910390fd5b611979838383614cc2565b80518251600091849184911461405957600092505050611e89565b60005b82518110156140fe5781818151811061407157fe5b602001015160f860020a900460f860020a027effffffffffffffffffffffffffffffffffffffffffffffffffffffffffffff19168382815181106140b157fe5b602001015160f860020a900460f860020a027effffffffffffffffffffffffffffffffffffffffffffffffffffffffffffff1916146140f65760009350505050611e89565b60010161405c565b50600195945050505050565b6141148282614d76565b61411e8282614e81565b6116f581614ebf565b60008282018381101561413957600080fd5b9392505050565b61414a8282614f03565b600081815260d4602052604090205460026000196101006001841615020190911604156116f557600081815260d4602052604081206116f591615638565b60008282111561419757600080fd5b50900390565b60008281526101076020526040902054600260001961010060018416150201909116041580156141cd5750805115155b61420b5760405160e560020a62461bcd02815260040180806020018281038252602d81526020018061579f602d913960400191505060405180910390fd5b600082815261010760209081526040909120825161422b928401906156f6565b508161010961423983613f4d565b6040518082805190602001908083835b602083106142685780518252601f199092019160209182019101614249565b51815160209384036101000a600019018019909216911617905292019485525060405193849003019092209290925550505050565b60008281526101086020526040902054600260001961010060018416150201909116041580156142cd5750805115155b61430b5760405160e560020a62461bcd0281526004018080602001828103825260318152602001806159856031913960400191505060405180910390fd5b600082815261010860209081526040909120825161432b928401906156f6565b508161010a61423983613f4d565b600160a060020a038116600081815261013d6020526040808220805460ff19169055517fcd265ebaf09df2871cc7bd4133404a235ba12eff2041bb89d9c714a2621c7c7e9190a250565b600160a060020a038116600081815261013d6020526040808220805460ff19166001179055517f6719d08c1888103bea251a4ed56406bd0c3e69723c8a1686e017e7bbe159b6f89190a250565b600160a060020a038216331415614431576040805160e560020a62461bcd02815260206004820152601360248201527f43616e6e6f7420617070726f76652073656c6600000000000000000000000000604482015290519081900360640190fd5b336000818152606960209081526040808320600160a060020a03871680855290835292819020805460ff1916861515908117909155815190815290519293927f17307eab39ab6107e8899845ad3d59bd9653f200f220920489ca2b5937696c31929181900390910190a35050565b60006144b384600160a060020a0316614f2f565b6144bf57506001614612565b6040517f150b7a020000000000000000000000000000000000000000000000000000000081523360048201818152600160a060020a03888116602485015260448401879052608060648501908152865160848601528651600095928a169463150b7a029490938c938b938b939260a4019060208501908083838e5b8381101561455257818101518382015260200161453a565b50505050905090810190601f16801561457f5780820380516001836020036101000a031916815260200191505b5095505050505050602060405180830381600087803b1580156145a157600080fd5b505af11580156145b5573d6000803e3d6000fd5b505050506040513d60208110156145cb57600080fd5b50517bffffffffffffffffffffffffffffffffffffffffffffffffffffffff19167f150b7a0200000000000000000000000000000000000000000000000000000000149150505b949350505050565b303b1590565b600054610100900460ff1680614639575061463961461a565b80614647575060005460ff16155b6146855760405160e560020a62461bcd02815260040180806020018281038252602e8152602001806158f8602e913960400191505060405180910390fd5b60008054600161010061ff00198316811760ff1916919091179092550460ff166146ad614f35565b6146d67f80ac58cd00000000000000000000000000000000000000000000000000000000614fdf565b600080549115156101000261ff0019909216919091179055565b600054610100900460ff1680614709575061470961461a565b80614717575060005460ff16155b6147555760405160e560020a62461bcd02815260040180806020018281038252602e8152602001806158f8602e913960400191505060405180910390fd5b60008054600161010061ff00198316811760ff1916919091179092550460ff1661477d615045565b61478657600080fd5b6146d67f780e9d6300000000000000000000000000000000000000000000000000000000614fdf565b600054610100900460ff16806147c857506147c861461a565b806147d6575060005460ff16155b6148145760405160e560020a62461bcd02815260040180806020018281038252602e8152602001806158f8602e913960400191505060405180910390fd5b60008054600161010061ff00198316811760ff1916919091179092550460ff1661483c615045565b61484557600080fd5b82516148589060d29060208601906156f6565b50815161486c9060d39060208501906156f6565b506148967f5b5e139f00000000000000000000000000000000000000000000000000000000614fdf565b600080549115156101000261ff00199092169190911790555050565b600054610100900460ff16806148cb57506148cb61461a565b806148d9575060005460ff16155b6149175760405160e560020a62461bcd02815260040180806020018281038252602e8152602001806158f8602e913960400191505060405180910390fd5b60008054600161010061ff00198316811760ff1916919091179092550460ff1661493f615045565b61494857600080fd5b61495182615075565b600080549115156101000261ff001990921691909117905550565b6000614978848461410a565b6149828383613fcc565b5060019392505050565b6101705460ff16156149d6576040805160e560020a62461bcd02815260206004820152600f6024820152600080516020615865833981519152604482015290519081900360640190fd5b60008381526101d760205260409020548390600160a060020a03163314614a315760405160e560020a62461bcd0281526004018080602001828103825260338152602001806159526033913960400191505060405180910390fd5b825160008581526101d860205260409020546fffffffffffffffffffffffffffffffff91614a65919063ffffffff61412716565b10614aa45760405160e560020a62461bcd02815260040180806020018281038252604a815260200180615885604a913960600191505060405180910390fd5b60008481526101d86020526040812054614ac590600163ffffffff61412716565b905060005b8451811015614b78576000858281518110614ae157fe5b602002602001015190506000614b00838561412790919063ffffffff16565b88179050614b0f82828861496c565b5060008881526101d660209081526040808320600160a060020a0386168452909152902054614b4590600163ffffffff61412716565b60008981526101d660209081526040808320600160a060020a039096168352949052929092209190915550600101614aca565b5060008581526101d860205260409020548451614b9a9163ffffffff61412716565b60009586526101d860205260409095209490945550505050565b60007f41000000000000000000000000000000000000000000000000000000000000007fff00000000000000000000000000000000000000000000000000000000000000831610801590614c4a57507f5a000000000000000000000000000000000000000000000000000000000000007fff00000000000000000000000000000000000000000000000000000000000000831611155b15614c67578160f860020a900460200160f860020a029050611556565b5090565b600080614c7783612963565b905080600160a060020a031684600160a060020a03161480614cb2575083600160a060020a0316614ca784611626565b600160a060020a0316145b8061461257506146128185613d11565b614ccd838383615129565b6000614cd882611f87565b60008181526101d660209081526040808320600160a060020a0389168452909152902054909150614d1090600163ffffffff61418816565b60008281526101d660209081526040808320600160a060020a038981168552925280832093909355851681522054614d49906001614127565b60009182526101d660209081526040808420600160a060020a039096168452949052929020919091555050565b600160a060020a038216614d8957600080fd5b614d9281613df6565b15614de7576040805160e560020a62461bcd02815260206004820152601460248201527f546f6b656e20616c726561647920657869737473000000000000000000000000604482015290519081900360640190fd5b6000818152606660209081526040808320805473ffffffffffffffffffffffffffffffffffffffff1916600160a060020a03871690811790915583526068909152902054614e36906001614127565b600160a060020a0383166000818152606860205260408082209390935591518392907fddf252ad1be2c89b69c2b068fc378daa952ba7f163c4a11628f55a4df523b3ef908290a45050565b600160a060020a039091166000908152609c602081815260408084208054868652609d84529185208290559282526001810183559183529091200155565b609e80546000838152609f60205260408120829055600182018355919091527fcfe2a20ff701a1f3e14f63bd70d6c6bc6fba8172ec6d5a505cdab3927c0a9de60155565b614f0d8282615148565b614f17828261525f565b6000818152609d60205260408120556116f581615354565b3b151590565b600054610100900460ff1680614f4e5750614f4e61461a565b80614f5c575060005460ff16155b614f9a5760405160e560020a62461bcd02815260040180806020018281038252602e8152602001806158f8602e913960400191505060405180910390fd5b60008054600161010061ff00198316811760ff1916919091179092550460ff166146d67f01ffc9a7000000000000000000000000000000000000000000000000000000005b7bffffffffffffffffffffffffffffffffffffffffffffffffffffffff19808216141561500b57600080fd5b7bffffffffffffffffffffffffffffffffffffffffffffffffffffffff19166000908152603360205260409020805460ff19166001179055565b60006150707f80ac58cd0000000000000000000000000000000000000000000000000000000061155b565b905090565b600054610100900460ff168061508e575061508e61461a565b8061509c575060005460ff16155b6150da5760405160e560020a62461bcd02815260040180806020018281038252602e8152602001806158f8602e913960400191505060405180910390fd5b60008054600161010061ff00198316811760ff1916919091179092550460ff16615103826153f0565b610170805460ff19169055600080549115156101000261ff001990921691909117905550565b61513483838361548b565b61513e838261525f565b6119798282614e81565b81600160a060020a031661515b82612963565b600160a060020a0316146151b9576040805160e560020a62461bcd02815260206004820152601360248201527f4275726e6572206973206e6f74206f776e657200000000000000000000000000604482015290519081900360640190fd5b6151c2816155f0565b600160a060020a0382166000908152606860205260409020546151ec90600163ffffffff61418816565b600160a060020a03831660008181526068602090815260408083209490945584825260669052828120805473ffffffffffffffffffffffffffffffffffffffff191690559151839291907fddf252ad1be2c89b69c2b068fc378daa952ba7f163c4a11628f55a4df523b3ef908390a45050565b600160a060020a0382166000908152609c602052604081205461528990600163ffffffff61418816565b6000838152609d602052604090205490915080821461532457600160a060020a0384166000908152609c602052604081208054849081106152c657fe5b9060005260206000200154905080609c600087600160a060020a0316600160a060020a03168152602001908152602001600020838154811061530457fe5b6000918252602080832090910192909255918252609d9052604090208190555b600160a060020a0384166000908152609c6020526040902080549061534d906000198301615764565b5050505050565b609e5460009061536b90600163ffffffff61418816565b6000838152609f6020526040812054609e805493945090928490811061538d57fe5b9060005260206000200154905080609e83815481106153a857fe5b6000918252602080832090910192909255828152609f90915260409020829055609e8054906153db906000198301615764565b505050600091825250609f6020526040812055565b600054610100900460ff1680615409575061540961461a565b80615417575060005460ff16155b6154555760405160e560020a62461bcd02815260040180806020018281038252602e8152602001806158f8602e913960400191505060405180910390fd5b60008054600161010061ff00198316811760ff1916919091179092550460ff1661547e82612064565b6149515761495182614383565b82600160a060020a031661549e82612963565b600160a060020a0316146154fc576040805160e560020a62461bcd02815260206004820181905260248201527f43616e6e6f742073656e6420746f6b656e2066726f6d206e6f6e206f776e6572604482015290519081900360640190fd5b600160a060020a03821661550f57600080fd5b615518816155f0565b600160a060020a03831660009081526068602052604090205461554290600163ffffffff61418816565b600160a060020a03808516600090815260686020526040808220939093559084168152205461557890600163ffffffff61412716565b600160a060020a0380841660008181526068602090815260408083209590955585825260669052838120805473ffffffffffffffffffffffffffffffffffffffff1916831790559251849391928716917fddf252ad1be2c89b69c2b068fc378daa952ba7f163c4a11628f55a4df523b3ef91a4505050565b600081815260676020526040902054600160a060020a031615612dce576000908152606760205260409020805473ffffffffffffffffffffffffffffffffffffffff19169055565b50805460018160011615610100020316600290046000825580601f1061565e5750612dce565b601f016020900490600052602060002090810190612dce9190615784565b828054600181600116156101000203166002900490600052602060002090601f016020900481019282601f106156bd5782800160ff198235161785556156ea565b828001600101855582156156ea579182015b828111156156ea5782358255916020019190600101906156cf565b50614c67929150615784565b828054600181600116156101000203166002900490600052602060002090601f016020900481019282601f1061573757805160ff19168380011785556156ea565b828001600101855582156156ea579182015b828111156156ea578251825591602001919060010190615749565b815481835581811115611979576000838152602090206119799181019083015b61162391905b80821115614c67576000815560010161578a56fe4e616d6520697320616c726561647920736574206f7220737570706c696564206e616d6520697320656d70747953656e646572206973206e65697468657220746865206f776e6572206f7220616e20617070726f76656420616464726573734c696d6974206f66206d6178206e756d626572206f6620747970657320726561636865642e20546869732069732074686520656e64206f662074686520776f726c642e455243373231207265636569766564206d657373616765206e6f742072657475726e6564436f6e74726163742070617573656400000000000000000000000000000000004c696d6974206f66206d6178206e756d626572206f6620746f6b656e73206f6620746869732074797065207265616368656420616e642074686520776f726c6420656e6473206e6f772e43616e6e6f74206d696e74206d6f7265207468616e20323020746f6b656e7320617420612074696d65436f6e747261637420696e7374616e63652068617320616c7265616479206265656e20696e697469616c697a656453656e646572206973206e6f74206f776e6572206f72206e6f7420617070726f766564206279206f776e65724f6e6c7920746f6b656e20747970652063726561746f72732063616e20706572666f726d2074686973206f7065726174696f6e53796d626f6c20697320616c726561647920736574206f7220737570706c6965642073796d626f6c20697320656d7074794f6e6c792077656220617070726f766572732063616e20706572666f726d2074686973206f7065726174696f6e496e646578206d757374206265206c657373207468616e20746f74616c20737570706c79a165627a7a723058209eeadc192165479a0e756147ccfa265c553b4aee95eb847fb2d96a927b3964fd0029",
  "source": "pragma solidity ^0.5.8;\n\nlibrary Address {\n    /**\n     * Returns whether the target address is a contract\n     * @dev This function will return false if invoked during the constructor of a contract,\n     * as the code is not actually created until after the constructor finishes.\n     * @param account address of the account to check\n     * @return whether the target address is a contract\n     */\n    function isContract(address account) internal view returns (bool) {\n        uint256 size;\n        // XXX Currently there is no better way to check if there is a contract in an address\n        // than to check the size of the code at that address.\n        // See https://ethereum.stackexchange.com/a/14016/36603\n        // for more details about how this works.\n        // TODO Check this again before the Serenity release, because all addresses will be\n        // contracts then.\n        // solhint-disable-next-line no-inline-assembly\n        assembly { size := extcodesize(account) }\n        return size > 0;\n    }\n}\n\nlibrary Strings {\n\n    function lowerCase(string memory base) internal pure returns (string memory) {\n        bytes memory baseBytes = bytes(base);\n        for (uint i = 0; i < baseBytes.length; i++) {\n            baseBytes[i] = _lowerCase(baseBytes[i]);\n        }\n        return string(baseBytes);\n    }\n\n    function _lowerCase(bytes1 _b1) private pure returns (bytes1) {\n        if (_b1 >= 0x41 && _b1 <= 0x5A) {\n            return bytes1(uint8(_b1)+32);\n        }\n        return _b1;\n    }\n\n    /**\n     * Equals\n     * \n     * Compares the characters of two strings, to ensure that they have an \n     * identical footprint. A more gas optimal implementation based on checking hashes instead of char by char comparison is possible \n     * \n     * @param _base When being used for a data type this is the extended object\n     *               otherwise this is the string base to compare against\n     * @param _value The string the base is being compared to\n     * @return bool Simply notates if the two string have an equivalent\n     */\n    function equals(string memory _base, string memory _value) \n        internal\n        pure\n        returns (bool) {\n        bytes memory _baseBytes = bytes(_base);\n        bytes memory _valueBytes = bytes(_value);\n\n        if (_baseBytes.length != _valueBytes.length) {\n            return false;\n        }\n\n        for(uint i = 0; i < _baseBytes.length; i++) {\n            if (_baseBytes[i] != _valueBytes[i]) {\n                return false;\n            }\n        }\n\n        return true;\n    }\n}\n\nlibrary SafeMath {\n    /**\n    * @dev Multiplies two unsigned integers, reverts on overflow.\n    */\n    function mul(uint256 a, uint256 b) internal pure returns (uint256) {\n        // Gas optimization: this is cheaper than requiring 'a' not being zero, but the\n        // benefit is lost if 'b' is also tested.\n        // See: https://github.com/OpenZeppelin/openzeppelin-solidity/pull/522\n        if (a == 0) {\n            return 0;\n        }\n\n        uint256 c = a * b;\n        require(c / a == b);\n\n        return c;\n    }\n\n    /**\n    * @dev Integer division of two unsigned integers truncating the quotient, reverts on division by zero.\n    */\n    function div(uint256 a, uint256 b) internal pure returns (uint256) {\n        // Solidity only automatically asserts when dividing by 0\n        require(b > 0);\n        uint256 c = a / b;\n        // assert(a == b * c + a % b); // There is no case in which this doesn't hold\n\n        return c;\n    }\n\n    /**\n    * @dev Subtracts two unsigned integers, reverts on overflow (i.e. if subtrahend is greater than minuend).\n    */\n    function sub(uint256 a, uint256 b) internal pure returns (uint256) {\n        require(b <= a);\n        uint256 c = a - b;\n\n        return c;\n    }\n\n    /**\n    * @dev Adds two unsigned integers, reverts on overflow.\n    */\n    function add(uint256 a, uint256 b) internal pure returns (uint256) {\n        uint256 c = a + b;\n        require(c >= a);\n\n        return c;\n    }\n\n    /**\n    * @dev Divides two unsigned integers and returns the remainder (unsigned integer modulo),\n    * reverts when dividing by zero.\n    */\n    function mod(uint256 a, uint256 b) internal pure returns (uint256) {\n        require(b != 0);\n        return a % b;\n    }\n}\n\n/**\n * @title Initializable\n *\n * @dev Helper contract to support initializer functions. To use it, replace\n * the constructor with a function that has the `initializer` modifier.\n * WARNING: Unlike constructors, initializer functions must be manually\n * invoked. This applies both to deploying an Initializable contract, as well\n * as extending an Initializable contract via inheritance.\n * WARNING: When used with inheritance, manual care must be taken to not invoke\n * a parent initializer twice, or ensure that all initializers are idempotent,\n * because this is not dealt with automatically as with constructors.\n */\ncontract Initializable {\n\n  /**\n   * @dev Indicates that the contract has been initialized.\n   */\n  bool private initialized;\n\n  /**\n   * @dev Indicates that the contract is in the process of being initialized.\n   */\n  bool private initializing;\n\n  /**\n   * @dev Modifier to use in the initializer function of a contract.\n   */\n  modifier initializer() {\n    require(initializing || isConstructor() || !initialized, \"Contract instance has already been initialized\");\n\n    bool wasInitializing = initializing;\n    initializing = true;\n    initialized = true;\n\n    _;\n\n    initializing = wasInitializing;\n  }\n\n  /// @dev Returns true if and only if the function is running in the constructor\n  function isConstructor() private view returns (bool) {\n    // extcodesize checks the size of the code stored in an address, and\n    // address returns the current address. Since the code is still not\n    // deployed when running a constructor, any checks on its code size will\n    // yield zero, making it an effective way to detect if a contract is\n    // under construction or not.\n    uint256 cs;\n    assembly { cs := extcodesize(address) }\n    return cs == 0;\n  }\n\n  // Reserved storage space to allow for layout changes in the future.\n  uint256[50] private ______gap;\n}\n\ncontract PauserRole is Initializable {\n\n    event PauserAdded(address indexed account);\n    event PauserRemoved(address indexed account);\n\n    mapping(address => bool) private _pausers;\n\n    function _initialize(address sender) internal initializer {\n        if (!isPauser(sender)) {\n            _addPauser(sender);\n        }\n    }\n\n    modifier onlyPauser() {\n        require(isPauser(msg.sender), \"Sender is not a pauser\");\n        _;\n    }\n\n    function isPauser(address account) public view returns (bool) {\n        if(_pausers[account]) {\n            return true;\n        }\n        return false;\n    }\n\n    function addPauser(address account) public onlyPauser {\n        _addPauser(account);\n    }\n\n    function renouncePauser() public {\n        _removePauser(msg.sender);\n    }\n\n    function _addPauser(address account) internal {\n        _pausers[account] = true;\n        emit PauserAdded(account);\n    }\n\n    function _removePauser(address account) internal {\n        delete _pausers[account];\n        emit PauserRemoved(account);\n    }\n\n    uint256[50] private ______gap;\n}\n\n\ncontract Pausable is Initializable, PauserRole {\n    event Paused(address account);\n    event Unpaused(address account);\n\n    bool private _paused;\n\n    function _initialize(address sender) internal initializer {\n        PauserRole._initialize(sender);\n\n        _paused = false;\n    }\n\n    /**\n     * @return true if the contract is paused, false otherwise.\n     */\n    function paused() public view returns (bool) {\n        return _paused;\n    }\n\n    /**\n     * @dev Modifier to make a function callable only when the contract is not paused.\n     */\n    modifier whenNotPaused() {\n        require(!_paused, \"Contract paused\");\n        _;\n    }\n\n    /**\n     * @dev Modifier to make a function callable only when the contract is paused.\n     */\n    modifier whenPaused() {\n        require(_paused, \"Contract not paused\");\n        _;\n    }\n\n    /**\n     * @dev called by the owner to pause, triggers stopped state\n     */\n    function pause() public onlyPauser whenNotPaused {\n        _paused = true;\n        emit Paused(msg.sender);\n    }\n\n    /**\n     * @dev called by the owner to unpause, returns to normal state\n     */\n    function unpause() public onlyPauser whenPaused {\n        _paused = false;\n        emit Unpaused(msg.sender);\n    }\n\n    uint256[50] private ______gap;\n}\n\ninterface IERC165 {\n    /**\n     * @notice Query if a contract implements an interface\n     * @param interfaceId The interface identifier, as specified in ERC-165\n     * @dev Interface identification is specified in ERC-165. This function\n     * uses less than 30,000 gas.\n     */\n    function supportsInterface(bytes4 interfaceId) external view returns (bool);\n}\n\ncontract IERC721 is Initializable, IERC165 {\n    event Transfer(address indexed from, address indexed to, uint256 indexed tokenId);\n    event Approval(address indexed owner, address indexed approved, uint256 indexed tokenId);\n    event ApprovalForAll(address indexed owner, address indexed operator, bool approved);\n\n    function balanceOf(address owner) public view returns (uint256 balance);\n    function ownerOf(uint256 tokenId) public view returns (address owner);\n\n    function approve(address to, uint256 tokenId) public;\n    function getApproved(uint256 tokenId) public view returns (address operator);\n\n    function setApprovalForAll(address operator, bool _approved) public;\n    function isApprovedForAll(address owner, address operator) public view returns (bool);\n\n    function transferFrom(address from, address to, uint256 tokenId) public;\n    function safeTransferFrom(address from, address to, uint256 tokenId) public;\n\n    function safeTransferFrom(address from, address to, uint256 tokenId, bytes memory data) public;\n}\n\n/**\n * @title ERC721 token receiver interface\n * @dev Interface for any contract that wants to support safeTransfers\n * from ERC721 asset contracts.\n */\ncontract IERC721Receiver {\n    /**\n     * @notice Handle the receipt of an NFT\n     * @dev The ERC721 smart contract calls this function on the recipient\n     * after a `safeTransfer`. This function MUST return the function selector,\n     * otherwise the caller will revert the transaction. The selector to be\n     * returned can be obtained as `this.onERC721Received.selector`. This\n     * function MAY throw to revert and reject the transfer.\n     * Note: the ERC721 contract address is always the message sender.\n     * @param operator The address which called `safeTransferFrom` function\n     * @param from The address which previously owned the token\n     * @param tokenId The NFT identifier which is being transferred\n     * @param data Additional data with no specified format\n     * @return `bytes4(keccak256(\"onERC721Received(address,address,uint256,bytes)\"))`\n     */\n    function onERC721Received(address operator, address from, uint256 tokenId, bytes memory data)\n    public returns (bytes4);\n}\n\ncontract IERC721Enumerable is Initializable, IERC721 {\n    function totalSupply() public view returns (uint256);\n    function tokenOfOwnerByIndex(address owner, uint256 index) public view returns (uint256 tokenId);\n\n    function tokenByIndex(uint256 index) public view returns (uint256);\n}\n\ncontract IERC721Metadata is Initializable, IERC721 {\n    function name() external view returns (string memory);\n    function symbol() external view returns (string memory);\n    function tokenURI(uint256 tokenId) external view returns (string memory);\n}\n\ncontract ERC165 is Initializable, IERC165 {\n    bytes4 private constant _INTERFACE_ID_ERC165 = 0x01ffc9a7;\n    /**\n     * 0x01ffc9a7 ===\n     *     bytes4(keccak256('supportsInterface(bytes4)'))\n     */\n\n    /**\n     * @dev a mapping of interface id to whether or not it's supported\n     */\n    mapping(bytes4 => bool) private _supportedInterfaces;\n\n    /**\n     * @dev A contract implementing SupportsInterfaceWithLookup\n     * implement ERC165 itself\n     */\n    function _initialize() internal initializer {\n        _registerInterface(_INTERFACE_ID_ERC165);\n    }\n\n    /**\n     * @dev implement supportsInterface(bytes4) using a lookup table\n     */\n    function supportsInterface(bytes4 interfaceId) public view returns (bool) {\n        return _supportedInterfaces[interfaceId];\n    }\n\n    /**\n     * @dev internal method for registering an interface\n     */\n    function _registerInterface(bytes4 interfaceId) internal {\n        require(interfaceId != 0xffffffff);\n        _supportedInterfaces[interfaceId] = true;\n    }\n\n    uint256[50] private ______gap;\n}\n\ncontract ERC721 is Initializable, ERC165, IERC721 {\n    using SafeMath for uint256;\n    using Address for address;\n\n    // Equals to `bytes4(keccak256(\"onERC721Received(address,address,uint256,bytes)\"))`\n    // which can be also obtained as `IERC721Receiver(0).onERC721Received.selector`\n    bytes4 private constant _ERC721_RECEIVED = 0x150b7a02;\n\n    // Mapping from token ID to owner\n    mapping (uint256 => address) private _tokenOwner;\n\n    // Mapping from token ID to approved address\n    mapping (uint256 => address) private _tokenApprovals;\n\n    // Mapping from owner to number of owned token\n    mapping (address => uint256) private _ownedTokensCount;\n\n    // Mapping from owner to operator approvals\n    mapping (address => mapping (address => bool)) private _operatorApprovals;\n\n    bytes4 private constant _INTERFACE_ID_ERC721 = 0x80ac58cd;\n    /*\n     * 0x80ac58cd ===\n     *     bytes4(keccak256('balanceOf(address)')) ^\n     *     bytes4(keccak256('ownerOf(uint256)')) ^\n     *     bytes4(keccak256('approve(address,uint256)')) ^\n     *     bytes4(keccak256('getApproved(uint256)')) ^\n     *     bytes4(keccak256('setApprovalForAll(address,bool)')) ^\n     *     bytes4(keccak256('isApprovedForAll(address,address)')) ^\n     *     bytes4(keccak256('transferFrom(address,address,uint256)')) ^\n     *     bytes4(keccak256('safeTransferFrom(address,address,uint256)')) ^\n     *     bytes4(keccak256('safeTransferFrom(address,address,uint256,bytes)'))\n     */\n\n    function _initialize() internal initializer {\n        ERC165._initialize();\n\n        // register the supported interfaces to conform to ERC721 via ERC165\n        _registerInterface(_INTERFACE_ID_ERC721);\n    }\n\n    function _hasBeenInitialized() internal view returns (bool) {\n        return supportsInterface(_INTERFACE_ID_ERC721);\n    }\n\n    /**\n     * @dev Gets the balance of the specified address\n     * @param owner address to query the balance of\n     * @return uint256 representing the amount owned by the passed address\n     */\n    function balanceOf(address owner) public view returns (uint256) {\n        require(owner != address(0));\n        return _ownedTokensCount[owner];\n    }\n\n    /**\n     * @dev Gets the owner of the specified token ID\n     * @param tokenId uint256 ID of the token to query the owner of\n     * @return owner address currently marked as the owner of the given token ID\n     */\n    function ownerOf(uint256 tokenId) public view returns (address) {\n        address owner = _tokenOwner[tokenId];\n        require(owner != address(0));\n        return owner;\n    }\n\n    /**\n     * @dev Approves another address to transfer the given token ID\n     * The zero address indicates there is no approved address.\n     * There can only be one approved address per token at a given time.\n     * Can only be called by the token owner or an approved operator.\n     * @param to address to be approved for the given token ID\n     * @param tokenId uint256 ID of the token to be approved\n     */\n    function approve(address to, uint256 tokenId) public {\n        address owner = ownerOf(tokenId);\n        require(to != owner, \"Cannot approve owner\");\n        require(msg.sender == owner || isApprovedForAll(owner, msg.sender), \"Sender is not owner or not approved by owner\");\n\n        _tokenApprovals[tokenId] = to;\n        emit Approval(owner, to, tokenId);\n    }\n\n    /**\n     * @dev Gets the approved address for a token ID, or zero if no address set\n     * Reverts if the token ID does not exist.\n     * @param tokenId uint256 ID of the token to query the approval of\n     * @return address currently approved for the given token ID\n     */\n    function getApproved(uint256 tokenId) public view returns (address) {\n        require(_exists(tokenId), \"Token does not exist\");\n        return _tokenApprovals[tokenId];\n    }\n\n    /**\n     * @dev Sets or unsets the approval of a given operator\n     * An operator is allowed to transfer all tokens of the sender on their behalf\n     * @param to operator address to set the approval\n     * @param approved representing the status of the approval to be set\n     */\n    function setApprovalForAll(address to, bool approved) public {\n        require(to != msg.sender, \"Cannot approve self\");\n        _operatorApprovals[msg.sender][to] = approved;\n        emit ApprovalForAll(msg.sender, to, approved);\n    }\n\n    /**\n     * @dev Tells whether an operator is approved by a given owner\n     * @param owner owner address which you want to query the approval of\n     * @param operator operator address which you want to query the approval of\n     * @return bool whether the given operator is approved by the given owner\n     */\n    function isApprovedForAll(address owner, address operator) public view returns (bool) {\n        return _operatorApprovals[owner][operator];\n    }\n\n    /**\n     * @dev Transfers the ownership of a given token ID to another address\n     * Usage of this method is discouraged, use `safeTransferFrom` whenever possible\n     * Requires the msg sender to be the owner, approved, or operator\n     * @param from current owner of the token\n     * @param to address to receive the ownership of the given token ID\n     * @param tokenId uint256 ID of the token to be transferred\n    */\n    function transferFrom(address from, address to, uint256 tokenId) public {\n        require(_isApprovedOrOwner(msg.sender, tokenId), \"Sender is neither the owner or an approved address\");\n\n        _transferFrom(from, to, tokenId);\n    }\n\n    /**\n     * @dev Safely transfers the ownership of a given token ID to another address\n     * If the target address is a contract, it must implement `onERC721Received`,\n     * which is called upon a safe transfer, and return the magic value\n     * `bytes4(keccak256(\"onERC721Received(address,address,uint256,bytes)\"))`; otherwise,\n     * the transfer is reverted.\n     *\n     * Requires the msg sender to be the owner, approved, or operator\n     * @param from current owner of the token\n     * @param to address to receive the ownership of the given token ID\n     * @param tokenId uint256 ID of the token to be transferred\n    */\n    function safeTransferFrom(address from, address to, uint256 tokenId) public {\n        safeTransferFrom(from, to, tokenId, \"\");\n    }\n\n    /**\n     * @dev Safely transfers the ownership of a given token ID to another address\n     * If the target address is a contract, it must implement `onERC721Received`,\n     * which is called upon a safe transfer, and return the magic value\n     * `bytes4(keccak256(\"onERC721Received(address,address,uint256,bytes)\"))`; otherwise,\n     * the transfer is reverted.\n     * Requires the msg sender to be the owner, approved, or operator\n     * @param from current owner of the token\n     * @param to address to receive the ownership of the given token ID\n     * @param tokenId uint256 ID of the token to be transferred\n     * @param _data bytes data to send along with a safe transfer check\n     */\n    function safeTransferFrom(address from, address to, uint256 tokenId, bytes memory _data) public {\n        transferFrom(from, to, tokenId);\n        require(_checkOnERC721Received(from, to, tokenId, _data), \"ERC721 received message not returned\");\n    }\n\n    /**\n     * @dev Returns whether the specified token exists\n     * @param tokenId uint256 ID of the token to query the existence of\n     * @return whether the token exists\n     */\n    function _exists(uint256 tokenId) internal view returns (bool) {\n        address owner = _tokenOwner[tokenId];\n        return owner != address(0);\n    }\n\n    /**\n     * @dev Returns whether the given spender can transfer a given token ID\n     * @param spender address of the spender to query\n     * @param tokenId uint256 ID of the token to be transferred\n     * @return bool whether the msg.sender is approved for the given token ID,\n     *    is an operator of the owner, or is the owner of the token\n     */\n    function _isApprovedOrOwner(address spender, uint256 tokenId) internal view returns (bool) {\n        address owner = ownerOf(tokenId);\n        return (spender == owner || getApproved(tokenId) == spender || isApprovedForAll(owner, spender));\n    }\n\n    /**\n     * @dev Internal function to mint a new token\n     * Reverts if the given token ID already exists\n     * @param to The address that will own the minted token\n     * @param tokenId uint256 ID of the token to be minted\n     */\n    function _mint(address to, uint256 tokenId) internal {\n        require(to != address(0));\n        require(!_exists(tokenId), \"Token already exists\");\n\n        _tokenOwner[tokenId] = to;\n        _ownedTokensCount[to] = _ownedTokensCount[to].add(1);\n\n        emit Transfer(address(0), to, tokenId);\n    }\n\n    /**\n     * @dev Internal function to burn a specific token\n     * Reverts if the token does not exist\n     * Deprecated, use _burn(uint256) instead.\n     * @param sender sender of the token to burn\n     * @param tokenId uint256 ID of the token being burned\n     */\n    function _burn(address sender, uint256 tokenId) internal {\n        require(ownerOf(tokenId) == sender, \"Burner is not owner\");\n\n        _clearApproval(tokenId);\n\n        _ownedTokensCount[sender] = _ownedTokensCount[sender].sub(1);\n        _tokenOwner[tokenId] = address(0);\n\n        emit Transfer(sender, address(0), tokenId);\n    }\n\n    /**\n     * @dev Internal function to burn a specific token\n     * Reverts if the token does not exist\n     * @param tokenId uint256 ID of the token being burned\n     */\n    function _burn(uint256 tokenId) internal {\n        _burn(ownerOf(tokenId), tokenId);\n    }\n\n    /**\n     * @dev Internal function to transfer ownership of a given token ID to another address.\n     * As opposed to transferFrom, this imposes no restrictions on msg.sender.\n     * @param from current owner of the token\n     * @param to address to receive the ownership of the given token ID\n     * @param tokenId uint256 ID of the token to be transferred\n    */\n    function _transferFrom(address from, address to, uint256 tokenId) internal {\n        require(ownerOf(tokenId) == from, \"Cannot send token from non owner\");\n        require(to != address(0));\n\n        _clearApproval(tokenId);\n\n        _ownedTokensCount[from] = _ownedTokensCount[from].sub(1);\n        _ownedTokensCount[to] = _ownedTokensCount[to].add(1);\n\n        _tokenOwner[tokenId] = to;\n\n        emit Transfer(from, to, tokenId);\n    }\n\n    /**\n     * @dev Internal function to invoke `onERC721Received` on a target address\n     * The call is not executed if the target address is not a contract\n     * @param from address representing the previous owner of the given token ID\n     * @param to target address that will receive the tokens\n     * @param tokenId uint256 ID of the token to be transferred\n     * @param _data bytes optional data to send along with the call\n     * @return whether the call correctly returned the expected magic value\n     */\n    function _checkOnERC721Received(address from, address to, uint256 tokenId, bytes memory _data)\n        internal returns (bool)\n    {\n        if (!to.isContract()) {\n            return true;\n        }\n\n        bytes4 retval = IERC721Receiver(to).onERC721Received(msg.sender, from, tokenId, _data);\n        return (retval == _ERC721_RECEIVED);\n    }\n\n    /**\n     * @dev Private function to clear current approval of a given token ID\n     * @param tokenId uint256 ID of the token to be transferred\n     */\n    function _clearApproval(uint256 tokenId) private {\n        if (_tokenApprovals[tokenId] != address(0)) {\n            _tokenApprovals[tokenId] = address(0);\n        }\n    }\n\n    uint256[50] private ______gap;\n}\n\ncontract ERC721Pausable is Initializable, ERC721, Pausable {\n    function _initialize(address sender) internal initializer {\n        require(ERC721._hasBeenInitialized());\n        Pausable._initialize(sender);\n    }\n\n    function approve(address to, uint256 tokenId) public whenNotPaused {\n        super.approve(to, tokenId);\n    }\n\n    function setApprovalForAll(address to, bool approved) public whenNotPaused {\n        super.setApprovalForAll(to, approved);\n    }\n\n    function transferFrom(address from, address to, uint256 tokenId) public whenNotPaused {\n        super.transferFrom(from, to, tokenId);\n    }\n\n    uint256[50] private ______gap;\n}\n\ncontract ERC721Metadata is Initializable, ERC165, ERC721, IERC721Metadata {\n    // Token name\n    string private _name;\n\n    // Token symbol\n    string private _symbol;\n\n    // Optional mapping for token URIs\n    mapping(uint256 => string) private _tokenURIs;\n\n    bytes4 private constant _INTERFACE_ID_ERC721_METADATA = 0x5b5e139f;\n    /**\n     * 0x5b5e139f ===\n     *     bytes4(keccak256('name()')) ^\n     *     bytes4(keccak256('symbol()')) ^\n     *     bytes4(keccak256('tokenURI(uint256)'))\n     */\n\n    /**\n     * @dev Constructor function\n     */\n    function _initialize(string memory name, string memory symbol) internal initializer {\n        require(ERC721._hasBeenInitialized());\n\n        _name = name;\n        _symbol = symbol;\n\n        // register the supported interfaces to conform to ERC721 via ERC165\n        _registerInterface(_INTERFACE_ID_ERC721_METADATA);\n    }\n\n    function _hasBeenInitialized() internal view returns (bool) {\n        return supportsInterface(_INTERFACE_ID_ERC721_METADATA);\n    }\n    /**\n     * @dev Gets the token name\n     * @return string representing the token name\n     */\n    function name() external view returns (string memory) {\n        return _name;\n    }\n\n    /**\n     * @dev Gets the token symbol\n     * @return string representing the token symbol\n     */\n    function symbol() external view returns (string memory) {\n        return _symbol;\n    }\n\n    /**\n     * @dev Returns an URI for a given token ID\n     * Throws if the token ID does not exist. May return an empty string.\n     * @param tokenId uint256 ID of the token to query\n     */\n    function tokenURI(uint256 tokenId) external view returns (string memory) {\n        require(_exists(tokenId), \"Token does not exist\");\n        return _tokenURIs[tokenId];\n    }\n\n    /**\n     * @dev Internal function to set the token URI for a given token\n     * Reverts if the token ID does not exist\n     * @param tokenId uint256 ID of the token to set its URI\n     * @param uri string URI to assign\n     */\n    function _setTokenURI(uint256 tokenId, string memory uri) internal {\n        // the require here is redundant\n        //require(_exists(tokenId), \"Token does not exist\");\n        // decision to let the owner change token URI can have interesting consequences, but until ipfs based addressing becomes a reality,\n        // we cannot rely on web links that can break\n        //require(bytes(_tokenURIs[tokenId]).length == 0, \"URI already set\");\n        _tokenURIs[tokenId] = uri;\n    }\n\n    /**\n     * @dev Internal function to burn a specific token\n     * Reverts if the token does not exist\n     * Deprecated, use _burn(uint256) instead\n     * @param owner owner of the token to burn\n     * @param tokenId uint256 ID of the token being burned by the msg.sender\n     */\n    function _burn(address owner, uint256 tokenId) internal {\n        super._burn(owner, tokenId);\n\n        // Clear metadata (if any)\n        if (bytes(_tokenURIs[tokenId]).length != 0) {\n            delete _tokenURIs[tokenId];\n        }\n    }\n\n    uint256[50] private ______gap;\n}\n\ncontract ERC721MultiMetadata is ERC721Metadata {\n\n    using Strings for string;\n\n    uint256 constant _TYPE_MASK = uint256(uint128(~0)) << 128;\n    // Token type to name mapping\n    mapping(uint256 => string) private _names;\n\n    // Token type to symbol mapping\n    mapping(uint256 => string) private _symbols;\n\n    // name to type mapping\n    mapping(string => uint256) private _nameToType;\n\n    mapping(string => uint256) private _symbolToType;\n\n    /**\n     * @dev Gets the token name of the given tokenId\n     * @return string representing the token name\n     */\n    function name(uint256 tokenId) external view returns (string memory) {\n        uint256 tokenType = tokenId & _TYPE_MASK;\n        return _names[tokenType];\n    }\n\n    /**\n     * @dev Gets the token symbol\n     * @return string representing the token symbol\n     */\n    function symbol(uint256 tokenId) external view returns (string memory) {\n        uint256 tokenType = tokenId & _TYPE_MASK;\n        return _symbols[tokenType];\n    }\n\n    /**\n     * @dev Sets name for the token type\n     * @return string representing the token symbol\n     */\n    function _setName(uint256 tokenType, string memory tokenName) internal {\n        require(bytes(_names[tokenType]).length == 0 && bytes(tokenName).length != 0, \"Name is already set or supplied name is empty\");\n        _names[tokenType] = tokenName;\n        _nameToType[tokenName.lowerCase()] = tokenType;\n    }\n\n    /**\n     * @dev Sets name for the token type\n     * @return string representing the token symbol\n     */\n    function _setSymbol(uint256 tokenType, string memory tokenSymbol) internal {\n        require(bytes(_symbols[tokenType]).length == 0 && bytes(tokenSymbol).length != 0, \"Symbol is already set or supplied symbol is empty\");\n        _symbols[tokenType] = tokenSymbol;\n        _symbolToType[tokenSymbol.lowerCase()] = tokenType;\n    }\n\n    function nameExists(string memory tokenName) public view returns (bool) {\n        return _nameToType[tokenName.lowerCase()] > 0;\n    }\n\n    function symbolExists(string memory tokenSymbol) public view returns (bool) {\n        return _symbolToType[tokenSymbol.lowerCase()] > 0;\n    }\n\n    function tokenTypeOfName(string memory tokenName) public view returns (uint256) {\n        return _nameToType[tokenName.lowerCase()];\n    }\n\n    function tokenTypeOfSymbol(string memory tokenSymbol) public view returns (uint256) {\n        return _symbolToType[tokenSymbol.lowerCase()];\n    }\n\n    uint256[50] private ______gap;\n}\n\ncontract ERC721Enumerable is Initializable, ERC165, ERC721, IERC721Enumerable {\n    // Mapping from owner to list of owned token IDs\n    mapping(address => uint256[]) private _ownedTokens;\n\n    // Mapping from token ID to index of the owner tokens list\n    mapping(uint256 => uint256) private _ownedTokensIndex;\n\n    // Array with all token ids, used for enumeration\n    uint256[] private _allTokens;\n\n    // Mapping from token id to position in the allTokens array\n    mapping(uint256 => uint256) private _allTokensIndex;\n\n    bytes4 private constant _INTERFACE_ID_ERC721_ENUMERABLE = 0x780e9d63;\n    /**\n     * 0x780e9d63 ===\n     *     bytes4(keccak256('totalSupply()')) ^\n     *     bytes4(keccak256('tokenOfOwnerByIndex(address,uint256)')) ^\n     *     bytes4(keccak256('tokenByIndex(uint256)'))\n     */\n\n    /**\n     * @dev Constructor function\n     */\n    function _initialize() internal initializer {\n        require(ERC721._hasBeenInitialized());\n\n        // register the supported interface to conform to ERC721 via ERC165\n        _registerInterface(_INTERFACE_ID_ERC721_ENUMERABLE);\n    }\n\n    function _hasBeenInitialized() internal view returns (bool) {\n        return supportsInterface(_INTERFACE_ID_ERC721_ENUMERABLE);\n    }\n\n    /**\n     * @dev Gets the token ID at a given index of the tokens list of the requested owner\n     * @param owner address owning the tokens list to be accessed\n     * @param index uint256 representing the index to be accessed of the requested tokens list\n     * @return uint256 token ID at the given index of the tokens list owned by the requested address\n     */\n    function tokenOfOwnerByIndex(address owner, uint256 index) public view returns (uint256) {\n        require(index < balanceOf(owner), \"Index must be less than balance\");\n        return _ownedTokens[owner][index];\n    }\n\n    /**\n     * @dev Gets the total amount of tokens stored by the contract\n     * @return uint256 representing the total amount of tokens\n     */\n    function totalSupply() public view returns (uint256) {\n        return _allTokens.length;\n    }\n\n    /**\n     * @dev Gets the token ID at a given index of all the tokens in this contract\n     * Reverts if the index is greater or equal to the total number of tokens\n     * @param index uint256 representing the index to be accessed of the tokens list\n     * @return uint256 token ID at the given index of the tokens list\n     */\n    function tokenByIndex(uint256 index) public view returns (uint256) {\n        require(index < totalSupply(), \"Index must be less than total supply\");\n        return _allTokens[index];\n    }\n\n    /**\n     * @dev Internal function to transfer ownership of a given token ID to another address.\n     * As opposed to transferFrom, this imposes no restrictions on msg.sender.\n     * @param from current owner of the token\n     * @param to address to receive the ownership of the given token ID\n     * @param tokenId uint256 ID of the token to be transferred\n    */\n    function _transferFrom(address from, address to, uint256 tokenId) internal {\n        super._transferFrom(from, to, tokenId);\n\n        _removeTokenFromOwnerEnumeration(from, tokenId);\n\n        _addTokenToOwnerEnumeration(to, tokenId);\n    }\n\n    /**\n     * @dev Internal function to mint a new token\n     * Reverts if the given token ID already exists\n     * @param to address the beneficiary that will own the minted token\n     * @param tokenId uint256 ID of the token to be minted\n     */\n    function _mint(address to, uint256 tokenId) internal {\n        super._mint(to, tokenId);\n\n        _addTokenToOwnerEnumeration(to, tokenId);\n\n        _addTokenToAllTokensEnumeration(tokenId);\n    }\n\n    /**\n     * @dev Internal function to burn a specific token\n     * Reverts if the token does not exist\n     * Deprecated, use _burn(uint256) instead\n     * @param owner owner of the token to burn\n     * @param tokenId uint256 ID of the token being burned\n     */\n    function _burn(address owner, uint256 tokenId) internal {\n        super._burn(owner, tokenId);\n\n        _removeTokenFromOwnerEnumeration(owner, tokenId);\n        // Since tokenId will be deleted, we can clear its slot in _ownedTokensIndex to trigger a gas refund\n        _ownedTokensIndex[tokenId] = 0;\n\n        _removeTokenFromAllTokensEnumeration(tokenId);\n    }\n\n    /**\n     * @dev Gets the list of token IDs of the requested owner\n     * @param owner address owning the tokens\n     * @return uint256[] List of token IDs owned by the requested address\n     */\n    function _tokensOfOwner(address owner) internal view returns (uint256[] storage) {\n        return _ownedTokens[owner];\n    }\n\n    /**\n     * @dev Private function to add a token to this extension's ownership-tracking data structures.\n     * @param to address representing the new owner of the given token ID\n     * @param tokenId uint256 ID of the token to be added to the tokens list of the given address\n     */\n    function _addTokenToOwnerEnumeration(address to, uint256 tokenId) private {\n        _ownedTokensIndex[tokenId] = _ownedTokens[to].length;\n        _ownedTokens[to].push(tokenId);\n    }\n\n    /**\n     * @dev Private function to add a token to this extension's token tracking data structures.\n     * @param tokenId uint256 ID of the token to be added to the tokens list\n     */\n    function _addTokenToAllTokensEnumeration(uint256 tokenId) private {\n        _allTokensIndex[tokenId] = _allTokens.length;\n        _allTokens.push(tokenId);\n    }\n\n    /**\n     * @dev Private function to remove a token from this extension's ownership-tracking data structures. Note that\n     * while the token is not assigned a new owner, the _ownedTokensIndex mapping is _not_ updated: this allows for\n     * gas optimizations e.g. when performing a transfer operation (avoiding double writes).\n     * This has O(1) time complexity, but alters the order of the _ownedTokens array.\n     * @param from address representing the previous owner of the given token ID\n     * @param tokenId uint256 ID of the token to be removed from the tokens list of the given address\n     */\n    function _removeTokenFromOwnerEnumeration(address from, uint256 tokenId) private {\n        // To prevent a gap in from's tokens array, we store the last token in the index of the token to delete, and\n        // then delete the last slot (swap and pop).\n\n        uint256 lastTokenIndex = _ownedTokens[from].length.sub(1);\n        uint256 tokenIndex = _ownedTokensIndex[tokenId];\n\n        // When the token to delete is the last token, the swap operation is unnecessary\n        if (tokenIndex != lastTokenIndex) {\n            uint256 lastTokenId = _ownedTokens[from][lastTokenIndex];\n\n            _ownedTokens[from][tokenIndex] = lastTokenId; // Move the last token to the slot of the to-delete token\n            _ownedTokensIndex[lastTokenId] = tokenIndex; // Update the moved token's index\n        }\n\n        // This also deletes the contents at the last position of the array\n        _ownedTokens[from].length--;\n\n        // Note that _ownedTokensIndex[tokenId] hasn't been cleared: it still points to the old slot (now occcupied by\n        // lasTokenId, or just over the end of the array if the token was the last one).\n    }\n\n    /**\n     * @dev Private function to remove a token from this extension's token tracking data structures.\n     * This has O(1) time complexity, but alters the order of the _allTokens array.\n     * @param tokenId uint256 ID of the token to be removed from the tokens list\n     */\n    function _removeTokenFromAllTokensEnumeration(uint256 tokenId) private {\n        // To prevent a gap in the tokens array, we store the last token in the index of the token to delete, and\n        // then delete the last slot (swap and pop).\n\n        uint256 lastTokenIndex = _allTokens.length.sub(1);\n        uint256 tokenIndex = _allTokensIndex[tokenId];\n\n        // When the token to delete is the last token, the swap operation is unnecessary. However, since this occurs so\n        // rarely (when the last minted token is burnt) that we still do the swap here to avoid the gas cost of adding\n        // an 'if' statement (like in _removeTokenFromOwnerEnumeration)\n        uint256 lastTokenId = _allTokens[lastTokenIndex];\n\n        _allTokens[tokenIndex] = lastTokenId; // Move the last token to the slot of the to-delete token\n        _allTokensIndex[lastTokenId] = tokenIndex; // Update the moved token's index\n\n        // This also deletes the contents at the last position of the array\n        _allTokens.length--;\n        _allTokensIndex[tokenId] = 0;\n    }\n\n    uint256[50] private ______gap;\n}\n\n/**\n * @title Multi ERC721 token\n *\n */\ncontract MultiNFT is Initializable, ERC721, ERC721Enumerable, ERC721MultiMetadata, ERC721Pausable {\n\n    // Use a split bit implementation.\n    // Store the type in the upper 128 bits\n    uint256 constant _TYPE_MASK = uint256(uint128(~0)) << 128;\n    // and the non-fungible index in the lower 128\n    uint256 constant _INDEX_MASK = uint128(~0);\n\n    uint256 _numTypesCreated;\n\n    // type => (owner => balance)\n    mapping (uint256 => mapping(address => uint256)) private _typeBalances;\n\n    // tyoe => creator\n    mapping (uint256 => address) private _typeCreators;\n\n    // type => maxIndex of type\n    mapping (uint256 => uint256) private _maxIndexOfType;\n\n    // dev fee for token actions, if exists; type => fee\n    mapping (uint256 => uint256) private _devFee;\n\n    mapping (uint256 => string) private _webTypeCreators;\n\n    mapping (uint256 => string) private _webOwners;\n\n    mapping (address => bool) private _webApprovers;\n    \n\n    modifier creatorOnly(uint256 tokenType) {\n        require(_typeCreators[tokenType] == msg.sender, \"Only token type creators can perform this operation\");\n        _;\n    }\n\n    modifier webApprovedOnly() {\n        require(_webApprovers[msg.sender] == true, \"Only web approvers can perform this operation\");\n        _;\n    }\n\n    event CreateType(string name, string symbol, string uri, address indexed creator);\n    event SetUri(uint256 indexed tokenId, string uri);\n    event WebCreateType(string name, string symbol, string uri, string owner, address indexed operator);\n    event WebMint(string tokenName, string uri, uint256 count, string owner);\n    event WebClaimType(string tokenName, string oldOwner, address indexed newOwner);\n    event WebTransfer(address indexed to, uint256 indexed tokenId, string owner);\n\n    function initialize(string memory name, string memory symbol, address[] memory pausers, address[] memory webApprovers) public initializer {\n        ERC721._initialize();\n        ERC721Enumerable._initialize();\n        ERC721Metadata._initialize(name, symbol);\n\n        // Initialize the pauser roles, and renounce them\n        ERC721Pausable._initialize(address(this));\n        _removePauser(address(this));\n\n        // Add the requested pausers (this can be done after renouncing since this is an internal call)\n        for (uint256 i = 0; i < pausers.length; ++i) {\n            _addPauser(pausers[i]);\n        }\n\n        for (uint256 i = 0; i < webApprovers.length; ++i) {\n            _webApprovers[webApprovers[i]] = true;\n        }\n    }\n\n    function getTypeBalance(uint256 tokenType, address owner) public view returns (uint256) {\n        return _typeBalances[tokenType][owner];\n    }\n\n    function getCreator(uint256 tokenType) public view returns (address) {\n        return _typeCreators[tokenType];\n    }\n\n    function getMaxIndex(uint256 tokenType) public view returns (uint256) {\n        return _maxIndexOfType[tokenType];\n    }\n\n    function numTypesCreated() public view returns (uint256) {\n        return _numTypesCreated;\n    }\n\n    // returns index of the given tokenId of this type\n    function getIndex(uint256 tokenId) public pure returns (uint256) {\n        return tokenId & _INDEX_MASK;\n    }\n\n    // returns the type of this tokenId\n    function getType(uint256 tokenId) public pure returns (uint256) {\n        return tokenId & _TYPE_MASK;\n    }\n\n    // This function only creates the type.\n    function createType(string calldata name, string calldata symbol, string calldata uri) external whenNotPaused returns (uint256) {\n        require(_numTypesCreated < _TYPE_MASK, \"Limit of max number of types reached. This is the end of the world.\");\n        require(!nameExists(name), \"Name already exists\");\n        require(!symbolExists(symbol), \"Symbol already exists\");\n\n        // Store the type in the upper 128 bits\n        _numTypesCreated = _numTypesCreated.add(1);\n        uint256 tokenType = (_numTypesCreated << 128);\n\n        // This will allow restricted access to creators.\n        _typeCreators[tokenType] = msg.sender;\n\n        _setName(tokenType, name);\n        _setSymbol(tokenType, symbol);\n\n        // mint the first token of this type with index 0 and send to type creator\n        _mintWithTokenURI(msg.sender, tokenType, uri);\n        _typeBalances[tokenType][msg.sender] = _typeBalances[tokenType][msg.sender].add(1);\n\n        emit CreateType(name, symbol, uri, msg.sender);\n\n        return tokenType;\n    }\n\n    function _mint(uint256 tokenType, address[] memory to, string memory uri) internal whenNotPaused creatorOnly(tokenType) {\n        require(_maxIndexOfType[tokenType].add(to.length) < _INDEX_MASK, \"Limit of max number of tokens of this type reached and the world ends now.\");\n\n        uint256 index = _maxIndexOfType[tokenType].add(1);\n\n        for (uint256 i = 0; i < to.length; ++i) {\n            address dest = to[i];\n            uint256 tokenId  = tokenType | index.add(i);\n            _mintWithTokenURI(dest, tokenId, uri);\n            _typeBalances[tokenType][dest] = _typeBalances[tokenType][dest].add(1);\n        }\n\n        _maxIndexOfType[tokenType] = to.length.add(_maxIndexOfType[tokenType]);\n    }\n\n    function mint(string calldata tokenName, address[] calldata to, string calldata uri) external {\n        _mint(tokenTypeOfName(tokenName), to, uri);\n    }\n\n    function _mintWithTokenURI(address to, uint256 tokenId, string memory tokenURI) internal returns (bool) {\n        _mint(to, tokenId);\n        _setTokenURI(tokenId, tokenURI);\n        return true;\n    }\n\n    function _transferFrom(address from, address to, uint256 tokenId) internal {\n        super._transferFrom(from, to, tokenId);\n        uint256 tokenType = getType(tokenId);\n        _typeBalances[tokenType][from] = _typeBalances[tokenType][from].sub(1);\n        _typeBalances[tokenType][to] = _typeBalances[tokenType][to].add(1);\n    }\n\n    // sets only when eixsting URI is blank\n    function setTokenURI(uint256 tokenId, string calldata uri) external whenNotPaused {\n        require(bytes(uri).length != 0, \"URI cannot be empty\");\n        require(ownerOf(tokenId) == msg.sender, \"Only owner can set uri\");\n        _setTokenURI(tokenId, uri);\n\n        emit SetUri(tokenId, uri);\n    }\n\n    function addWebApprover(address approver) public whenNotPaused webApprovedOnly {\n        _webApprovers[approver] = true;\n    }\n\n    function removeWebApprover(address approver) public whenNotPaused webApprovedOnly {\n        delete _webApprovers[approver];\n    }\n\n    function webCreateType(string calldata name, string calldata symbol, string calldata uri, string calldata owner) external whenNotPaused webApprovedOnly returns (uint256) {\n        require(_numTypesCreated < _TYPE_MASK, \"Limit of max number of types reached. This is the end of the world.\");\n        require(!nameExists(name), \"Name already exists\");\n        require(!symbolExists(symbol), \"Symbol already exists\");\n        require(bytes(owner).length != 0, \"Owner cannot be empty\");\n\n        // Store the type in the upper 128 bits\n        _numTypesCreated = _numTypesCreated.add(1);\n        uint256 tokenType = (_numTypesCreated << 128);\n        require(!_exists(tokenType), \"Token type already exists\"); // may be redundant\n\n        _webTypeCreators[tokenType] = owner;\n        _setName(tokenType, name);\n        _setSymbol(tokenType, symbol);\n        _setTokenURI(tokenType, uri);\n        _webOwners[tokenType] = owner;\n\n        emit WebCreateType(name, symbol, uri, owner, msg.sender);\n        return tokenType;\n    }\n\n    function webClaimType(string calldata tokenName, string calldata oldOwner, address newOwner) external whenNotPaused webApprovedOnly returns (bool) {\n        require(newOwner != address(0), \"New owner cannot be 0x0\");\n        require(bytes(oldOwner).length != 0, \"Owner cannot be empty\");\n        require(bytes(tokenName).length != 0, \"Token name cannot be empty\");\n        uint256 tokenType = tokenTypeOfName(tokenName);\n        require(_webTypeCreators[tokenType].equals(oldOwner), \"Only owner can claim type\");\n\n        _mint(newOwner, tokenType);\n        _typeCreators[tokenType] = newOwner;\n        _typeBalances[tokenType][newOwner] = _typeBalances[tokenType][newOwner].add(1);\n\n        delete _webOwners[tokenType];\n        delete _webTypeCreators[tokenType];\n\n        emit WebClaimType(tokenName, oldOwner, newOwner);\n        return true;\n    }\n\n    function webMint(string calldata tokenName, string calldata uri, uint256 count, string calldata owner) external whenNotPaused webApprovedOnly returns (uint256[] memory) {\n        require(count < 21, \"Cannot mint more than 20 tokens at a time\"); //arbitrarily set to 20\n        require(bytes(owner).length != 0, \"Owner cannot be empty\");\n        require(bytes(tokenName).length != 0, \"Token name cannot be empty\");\n        uint256 tokenType = tokenTypeOfName(tokenName);\n        require(_webTypeCreators[tokenType].equals(owner), \"Only type creator can mint\");\n        require(_maxIndexOfType[tokenType].add(count) < _INDEX_MASK, \"Limit of max number of tokens of this type reached and the world ends now.\");\n\n        uint256 index = _maxIndexOfType[tokenType].add(1);\n        uint256[] memory tokenIds = new uint256[](count);\n\n        for (uint256 i = 0; i < count; ++i) {\n            uint256 tokenId  = tokenType | index.add(i);\n            _setTokenURI(tokenId, uri);\n            _webOwners[tokenId] = owner;\n            tokenIds[i] = tokenId;\n        }\n\n        _maxIndexOfType[tokenType] = count.add(_maxIndexOfType[tokenType]);\n\n        emit WebMint(tokenName, uri, count, owner);\n        return tokenIds;\n    }\n\n    function webTransfer(address to, uint256 tokenId, string calldata owner) external whenNotPaused webApprovedOnly {\n        require(_webOwners[tokenId].equals(owner), \"Only owner can transfer\");\n        require(bytes(owner).length != 0, \"Owner cannot be empty\");\n        _mint(to, tokenId);\n        uint256 tokenType = getType(tokenId);\n        _typeBalances[tokenType][to] = _typeBalances[tokenType][to].add(1);\n        delete _webOwners[tokenId];\n        emit WebTransfer(to, tokenId, owner);\n    }\n\n    function webSetTokenURI(uint256 tokenId, string calldata uri, string calldata owner) external whenNotPaused webApprovedOnly {\n        require(bytes(uri).length != 0, \"URI cannot be empty\");\n        require(bytes(owner).length != 0, \"Owner cannot be empty\");\n        require(_webOwners[tokenId].equals(owner), \"Only owner can set uri\");\n        _setTokenURI(tokenId, uri);\n        emit SetUri(tokenId, uri);\n    }\n\n    /**\n     * @dev Burns a specific ERC721 token.\n     * @param tokenId uint256 id of the ERC721 token to be burned.\n     */\n    function burn(uint256 tokenId) external whenNotPaused {\n        uint256 tokenType = getType(tokenId);\n        _burn(msg.sender, tokenId);\n        _typeBalances[tokenType][msg.sender] = _typeBalances[tokenType][msg.sender].sub(1);\n    }\n\n    uint256[50] private ______gap;\n}",
  "sourcePath": "/Users/adi/work/projects/mavrik/mavrik-contracts-backend/contracts/MultiNFT.sol",
  "compiler": {
    "name": "solc",
    "version": "0.5.8+commit.23d335f2.Emscripten.clang"
  },
  "schemaVersion": "3.0.8",
  "updatedAt": "2019-05-26T04:02:18.984Z",
  "devdoc": {
    "methods": {
      "balanceOf(address)": {
        "details": "Gets the balance of the specified address",
        "params": {
          "owner": "address to query the balance of"
        },
        "return": "uint256 representing the amount owned by the passed address"
      },
      "burn(uint256)": {
        "details": "Burns a specific ERC721 token.",
        "params": {
          "tokenId": "uint256 id of the ERC721 token to be burned."
        }
      },
      "getApproved(uint256)": {
        "details": "Gets the approved address for a token ID, or zero if no address set Reverts if the token ID does not exist.",
        "params": {
          "tokenId": "uint256 ID of the token to query the approval of"
        },
        "return": "address currently approved for the given token ID"
      },
      "isApprovedForAll(address,address)": {
        "details": "Tells whether an operator is approved by a given owner",
        "params": {
          "operator": "operator address which you want to query the approval of",
          "owner": "owner address which you want to query the approval of"
        },
        "return": "bool whether the given operator is approved by the given owner"
      },
      "name()": {
        "details": "Gets the token name",
        "return": "string representing the token name"
      },
      "name(uint256)": {
        "details": "Gets the token name of the given tokenId",
        "return": "string representing the token name"
      },
      "ownerOf(uint256)": {
        "details": "Gets the owner of the specified token ID",
        "params": {
          "tokenId": "uint256 ID of the token to query the owner of"
        },
        "return": "owner address currently marked as the owner of the given token ID"
      },
      "pause()": {
        "details": "called by the owner to pause, triggers stopped state"
      },
      "paused()": {
        "return": "true if the contract is paused, false otherwise."
      },
      "safeTransferFrom(address,address,uint256)": {
        "details": "Safely transfers the ownership of a given token ID to another address If the target address is a contract, it must implement `onERC721Received`, which is called upon a safe transfer, and return the magic value `bytes4(keccak256(\"onERC721Received(address,address,uint256,bytes)\"))`; otherwise, the transfer is reverted.     * Requires the msg sender to be the owner, approved, or operator",
        "params": {
          "from": "current owner of the token",
          "to": "address to receive the ownership of the given token ID",
          "tokenId": "uint256 ID of the token to be transferred"
        }
      },
      "safeTransferFrom(address,address,uint256,bytes)": {
        "details": "Safely transfers the ownership of a given token ID to another address If the target address is a contract, it must implement `onERC721Received`, which is called upon a safe transfer, and return the magic value `bytes4(keccak256(\"onERC721Received(address,address,uint256,bytes)\"))`; otherwise, the transfer is reverted. Requires the msg sender to be the owner, approved, or operator",
        "params": {
          "_data": "bytes data to send along with a safe transfer check",
          "from": "current owner of the token",
          "to": "address to receive the ownership of the given token ID",
          "tokenId": "uint256 ID of the token to be transferred"
        }
      },
      "supportsInterface(bytes4)": {
        "details": "implement supportsInterface(bytes4) using a lookup table"
      },
      "symbol()": {
        "details": "Gets the token symbol",
        "return": "string representing the token symbol"
      },
      "symbol(uint256)": {
        "details": "Gets the token symbol",
        "return": "string representing the token symbol"
      },
      "tokenByIndex(uint256)": {
        "details": "Gets the token ID at a given index of all the tokens in this contract Reverts if the index is greater or equal to the total number of tokens",
        "params": {
          "index": "uint256 representing the index to be accessed of the tokens list"
        },
        "return": "uint256 token ID at the given index of the tokens list"
      },
      "tokenOfOwnerByIndex(address,uint256)": {
        "details": "Gets the token ID at a given index of the tokens list of the requested owner",
        "params": {
          "index": "uint256 representing the index to be accessed of the requested tokens list",
          "owner": "address owning the tokens list to be accessed"
        },
        "return": "uint256 token ID at the given index of the tokens list owned by the requested address"
      },
      "tokenURI(uint256)": {
        "details": "Returns an URI for a given token ID Throws if the token ID does not exist. May return an empty string.",
        "params": {
          "tokenId": "uint256 ID of the token to query"
        }
      },
      "totalSupply()": {
        "details": "Gets the total amount of tokens stored by the contract",
        "return": "uint256 representing the total amount of tokens"
      },
      "unpause()": {
        "details": "called by the owner to unpause, returns to normal state"
      }
    },
    "title": "Multi ERC721 token "
  },
  "userdoc": {
    "methods": {}
  }
}